:100000000C94F3000C9410010C9410010C9410014A
:100010000C9410010C9410010C9410010C9410011C
:100020000C9410010C9410010C9410010C9410010C
:100030000C9410010C9410010C9410010C941001FC
:100040000C9410010C9410010C9410010C941001EC
:100050000C9410010C9410010C9410010C941001DC
:100060000C9410010C9410010C9410010C941001CC
:100070000C9410010C9410010C9410010C941001BC
:100080000C9410010C9410010C9410010C941001AC
:100090000C9410010C9410010C9410010C9410019C
:1000A0000C9410010C9410010C9410010C9410018C
:1000B0000C9410010C9410010C9469020C944402ED
:1000C0000C9410010C9410010C9410010C9410016C
:1000D0000C9410010C9410010C9410010C9410015C
:1000E0000C9410010C9410010C9410010C9410014C
:1000F0000C9410010C9410010C9410010C9410013C
:100100000C9410010C9410010C9410010C9410012B
:100110000C9410010C9410010C9410010C9410011B
:100120000C9410010C9410010C9410010C9410010B
:100130000C9410010C9410010C9410010C941001FB
:100140000C9410010C9410010C9410010C941001EB
:100150000C9410010C9410010C9410010C941001DB
:100160000C941D0A0C9410010C9410010C940D0EAB
:100170000C9410010C941001A90F2C10BE0FC20F8B
:1001800023102C102C102C102C102C102C102C1098
:1001900026102A102C102C102C101E101F102C10A2
:1001A0002C102C102C10AD0FB20F2C102C102C106A
:1001B0002C102C102C10B80F084AD73B3BCE016EE8
:1001C00084BCBFFDC12F3D6C74319ABD56833DDAAE
:1001D0003D00C77F11BED9E4BB4C3E916BAAAABEBD
:1001E000000000803F0011241FBECFEFCDBFDFE233
:1001F000DEBF10E2A0E0B0E2E6EBFAE302C0059059
:100200000D92AE30B107D9F712E2AEE0B0E201C014
:100210001D92A034B107E1F70E94F0170C94591D0C
:100220000C940000FC01608371834863DB0111962C
:100230004C93A081B18115962C930190F081E02D13
:1002400081E084830895DC01ED91FC9184818370C9
:100250000895FC01878980E008950F93CF93DF9381
:10026000FC01293098F5093098F58789811132C051
:1002700081E0878B108E660F6283222369F0A42FA2
:10028000B52F40E050E08D91EF01C40FD51F8B8357
:100290004F5F5F4F4217B8F3238B048B158A168A82
:1002A0008389882341F082818E7F0190F081E02D47
:1002B000868381E012C08489882371F08281816005
:1002C0000190F081E02D868381E007C080E005C0C9
:1002D00080E003C080E001C081E0DF91CF910F9109
:1002E00008950F9300E00E942D010F9108950F9340
:1002F000042F20E040E050E00E942D010F9108956E
:10030000FC01A081B18114969C91149792FF03C0C7
:1003100084E0808F02C083E0808F986014969C9365
:10032000178A0895CF93DF93FC0193892489A081D4
:10033000B18114968C91149784FF07C083E01396C3
:100340008C9385E0808F178A1CC08589891758F4A3
:100350008589EF01C80FD11D8B8117968C938589F4
:100360008F5F858B0EC08689821728F48281816019
:1003700016968C9306C083E013968C9381E0808F51
:10038000178ADF91CF910895FC018689883070F437
:10039000A081B18117968C919689DF01A90FB11DBB
:1003A0001B968C9386898F5F868B08C0A081B18154
:1003B00083E013968C9382E0808F178A94898689D4
:1003C000891730F40190F081E02D82E08383089555
:1003D000A081B18187E013968C9381E0808F178A8A
:1003E0000895DC01ED91FC912481322F3C7019F0CD
:1003F0000E948001089526FF03C00E949201089583
:1004000022231CF40E94C401089526E0FC01208FE1
:10041000178A0895FC01608F178A089588ED84BFBC
:100420008FE180938000E0E8F0E0828180FDFDCFE5
:100430000895E0E8F0E080818C7F816098ED94BFC2
:1004400080830895E091200AF091210AEE0FFF1FAA
:100450002091E2213091E3214091E4215091E52166
:10046000A0E1B7E20E94C31C6E0F7F1F811D911D8A
:1004700008950E94220228EE33E040E050E00E94FE
:10048000CE1CCA01B90108951F920F920FB60F92A8
:1004900011248F939F93AF93BF938091E22190910A
:1004A000E321A091E421B091E5210196A11DB11DA8
:1004B0008093E2219093E321A093E421B093E5217E
:1004C000BF91AF919F918F910F900FBE0F901F9092
:1004D00018951F920F920FB60F9211242F933F93EE
:1004E0004F935F936F937F938F939F93AF93BF933C
:1004F000EF93FF9387E192E20E94F101FF91EF9168
:10050000BF91AF919F918F917F916F915F914F912B
:100510003F912F910F900FBE0F901F9018952F9223
:100520003F924F925F926F927F928F929F92AF9283
:10053000BF92CF92DF92EF92FF920F931F93CF93D0
:10054000DF93E0E4F6E08581806485830F2EF0E19F
:100550002F2EF7E23F2EF02D412C512C3201812C11
:10056000912C5401C12CD12C760113E4C7E1D2E2C5
:100570001093D42106E021E044ED51E269E6CE017A
:100580000E942D018F898111FDCF8B852C8590E0F4
:10059000982F8827820F911DAA2797FDA095BA2F23
:1005A000480E591E6A1E7B1E8D852E8590E0982F61
:1005B0008827820F911DAA2797FDA095BA2F880E34
:1005C000991EAA1EBB1E8F85288990E0982F882728
:1005D000820F911DAA2797FDA095BA2FC80ED91E8C
:1005E000EA1EFB1E88EC90E00197F1F7A89581E0E8
:1005F000281A310809F0BCCFE0E4F6E08681806477
:100600008683C8ECD1E2C301B20120E137E240E0C9
:1006100050E00E94F01CCA01B9010E94261B6883A9
:1006200079838A839B83C501B40120E137E240E0EE
:1006300050E00E94F01CCA01B9010E94261B6C8385
:100640007D838E839F83C701B60120E137E240E0BE
:1006500050E00E94F01CCA01B9010E94261B688765
:1006600079878A879B87DF91CF911F910F91FF90A8
:10067000EF90DF90CF90BF90AF909F908F907F9042
:100680006F905F904F903F902F9008952F923F92E0
:100690004F925F926F927F928F929F92AF92BF9292
:1006A000CF92DF92EF92FF920F931F93CF93DF933E
:1006B000E0E4F6E08581806885830F2EF0E12F2E3F
:1006C000F7E23F2EF02D412C512C3201812C912C40
:1006D0005401C12CD12C76011BE3C7E1D2E2109367
:1006E000D42106E021E044ED51E269E6CE010E940A
:1006F0002D018F898111FDCF8B852C8590E0982F5E
:100700008827820F911DAA2797FDA095BA2F480E22
:10071000591E6A1E7B1E8D852E8590E0982F882796
:10072000820F911DAA2797FDA095BA2F880E991EBA
:10073000AA1EBB1E8F85288990E0982F8827820FDC
:10074000911DAA2797FDA095BA2FC80ED91EEA1EA3
:10075000FB1E88EC90E00197F1F7A89581E0281A3C
:10076000310809F0BCCFE0E4F6E08681806886833A
:10077000CCEBD1E2C301B20120E137E240E050E02E
:100780000E94F01CCA01B9010E94261B688379836C
:100790008A839B83C501B40120E137E240E050E049
:1007A0000E94F01CCA01B9010E94261B6C837D8344
:1007B0008E839F83C701B60120E137E240E050E01D
:1007C0000E94F01CCA01B9010E94261B6887798724
:1007D0008A879B87DF91CF911F910F91FF90EF90B8
:1007E000DF90CF90BF90AF909F908F907F906F9051
:1007F0005F904F903F902F900895CF93DF93ECEB55
:10080000F1E2108211821282138214821582168202
:1008100017821086118612861386E8ECF1E21082A8
:100820001182128213821482158216821782108618
:100830001186128613860E948F020E9446034FE0A3
:1008400050E0C0E0D6E0E0E4F6E0A0E8B6E06FEF0C
:100850007FEF2D8120622D832581206425832581D2
:100860002068258315962C911597246015962C9356
:100870001597CB010197F1F7CB010197F1F7CB0168
:100880000197F1F7CB010197F1F72E8120622E83BA
:1008900026812064268326812068268316962C9143
:1008A0001697246016962C931697CB010197F1F7B3
:1008B000CB010197F1F7CB010197F1F7CB0101973C
:1008C000F1F74150510909F0C4CF84E08093D7215A
:1008D000DF91CF9108952F923F924F925F926F9246
:1008E0007F928F929F92AF92BF92CF92DF92EF92C0
:1008F000FF920F931F93CF93DF9300D000D0CDB71B
:10090000DEB783E48093D42106E021E044ED51E298
:1009100069E687E192E20E942D01E7E1F2E2878930
:100920008111FDCF0F2EF7E1EF2EF2E2FF2EF02D19
:10093000D7011B966C911B971C968C9170E0762FBB
:100940006627680F711D882777FD8095982F0E9474
:10095000261B08EC11E2F80120813181428153818C
:100960000E94FA192B013C010F2EF0EB2F2EF1E221
:100970003F2EF02DD1016D937D938D939C93139712
:10098000F7016585868570E0762F6627680F711DF3
:10099000882777FD8095982F0E94261BD8011496F2
:1009A0002D913D914D915C9117970E94FA194B0141
:1009B0005C01F1016483758386839783D7011F9659
:1009C0006C911F9750968C9170E0762F6627680F78
:1009D000711D882777FD8095982F0E94261BF801AE
:1009E00020853185428553850E94FA196B017C016F
:1009F000D10118966D937D938D939C931B9720E066
:100A000030E045E852E4C301B2010E948B1A2B0189
:100A10003C0108E911E2F8016083718382839383CA
:100A200020E030E045E852E4C501B4010E948B1A91
:100A30004B015C01D80114966D937D938D939C932B
:100A4000179720E030E043E852E4C701B6010E9466
:100A50008B1A69837A838B839C83F8016087718703
:100A600082879387C0900020D0900120E0900220E0
:100A7000F09003200CE811E2A7019601C301B20136
:100A80000E94061C9B01AC01D8016D917D918D9156
:100A90009C910E94FB19F801608371838283938388
:100AA000A7019601C501B4010E94061C9B01AC017F
:100AB000D80114966D917D918D919C9117970E940C
:100AC000FB19F8016483758386839783A7019601D8
:100AD00069817A818B819C810E94061C9B01AC01FB
:100AE000D80118966D917D918D919C911B970E94D4
:100AF000FB19F80160877187828793872496CDBFA1
:100B0000DEBFDF91CF911F910F91FF90EF90DF90AB
:100B1000CF90BF90AF909F908F907F906F905F909D
:100B20004F903F902F9008954F925F926F927F92D7
:100B30008F929F92AF92BF92CF92DF92EF92FF92ED
:100B40000F931F93CF93DF9300D000D0CDB7DEB7C4
:100B50008BE38093D42106E021E044ED51E269E685
:100B600087E192E20E942D01E7E1F2E2878981119B
:100B7000FDCF0F2EF7E16F2EF2E27F2EF02DF30165
:100B80006385848570E0762F6627680F711D88273E
:100B900077FD8095982F0E94261B0F2EFCEBAF2E21
:100BA000F1E2BF2EF02DF501208131814281538188
:100BB0000E94FA196B017C0104EA11E2F8016083DA
:100BC000718382839383F3016585868570E0762F38
:100BD0006627680F711D882777FD8095982F0E94E2
:100BE000261BF50124813581468157810E94FA191F
:100BF0004B015C01F8016483758386839783F3015D
:100C00006785808970E0762F6627680F711D8827B9
:100C100077FD8095982F0E94261BF80160877187C9
:100C2000828793879B01AC010E94061C2B013C012B
:100C3000A7019601C701B6010E94061C69837A8349
:100C40008B839C8329813A814B815C81C301B201F2
:100C50000E94FB190E946D1C9B01AC01C501B401EF
:100C60000E948B1A0E945F1A00E811E224E13EE222
:100C700045E652E40E94061CF8016083718382837A
:100C80009383A5019401C501B4010E94061C9B0138
:100C9000AC01C301B2010E94FB190E946D1C9B01B3
:100CA000AC01C701B60190580E948B1A0E945F1ACE
:100CB00024E13EE245E652E40E94061CF80164830A
:100CC0007583868397832496CDBFDEBFDF91CF9156
:100CD0001F910F91FF90EF90DF90CF90BF90AF905A
:100CE0009F908F907F906F905F904F900895E0EF6E
:100CF000F1E221E9218392E8958382E381872283CF
:100D0000968382879AE593832CE327831386108644
:100D10001486108A968791E49787118A1586828BAC
:100D2000138A148A158A168A178A089581E2E0E0E8
:100D3000F0E1A0EFB1E201900D928A95E1F7E0E6D3
:100D4000F1E220E831E28CED95E0A0E0B0E08193A3
:100D50009193A193B193E217F307C9F784E794E065
:100D6000A0E0B0E080936C2190936D21A0936E2160
:100D7000B0936F2108954F925F926F927F928F92FE
:100D80009F92AF92BF92CF92DF92EF92FF921F930A
:100D9000CF93DF93CDB7DEB72897CDBFDEBF80916D
:100DA0005221909153212CE3289FB001299F700D6F
:100DB000112480E090E00E94241B69837A838B8356
:100DC0009C83E2E3F1E280809180A280B380448042
:100DD00055806680778024EF3DEF44EB5FE36085CC
:100DE0007185828593850E94061C6D837E838F8327
:100DF0009887A3019201C501B4010E94FA192D81BF
:100E00003E814F8158850E94FA199B01AC0169818E
:100E10007A818B819C810E94FB190E94F31A99238D
:100E20008CF06B017C0161361AEE7107810591052A
:100E300064F00F2EF0E6CF2EFAEEDF2EE12CF12C2F
:100E4000F02D03C0C12CD12C7601C0924221D0924A
:100E50004321E0924421F0924521A3019201C50172
:100E6000B4010E94FB199B01AC016D817E818F81D1
:100E700098850E94FB199B01AC0169817A818B8165
:100E80009C810E94FB190E94F31A99236CF0DC01EB
:100E9000CB0181362AEE9207A105B10544F080E628
:100EA0009AEEA0E0B0E003C080E090E0DC01809327
:100EB000462190934721A0934821B0934921A50151
:100EC0009401C301B2010E94FA192D813E814F8124
:100ED00058850E94FA199B01AC0169817A818B8146
:100EE0009C810E94FB190E94F31A99236CF0DC018B
:100EF000CB018136EAEE9E07A105B10544F080E6FC
:100F00009AEEA0E0B0E003C080E090E0DC018093C6
:100F10004A2190934B21A0934C21B0934D21C501C0
:100F2000B4019058A30192010E94FA199B01AC01EF
:100F30006D817E818F8198850E94FB199B01AC0198
:100F400069817A818B819C810E94FB190E94F31A2E
:100F500099236CF0DC01CB018136FAEE9F07A105E5
:100F6000B10544F080E69AEEA0E0B0E003C080E076
:100F700090E0DC0180934E2190934F21A09350216B
:100F8000B0935121B701A6010F2EF2E44F2EF1E2EA
:100F90005F2EF02D22E531E2D201CD90DD90ED9073
:100FA000FD904C155D056E057F0510F4B701A60197
:100FB000A217B30791F70F2EF0E6CF2EFAEEDF2E31
:100FC000E12CF12CF02D46015701841A950AA60A4E
:100FD000B70A41361AEE5107610571056CF0F2014E
:100FE00080819181A281B381880D991DAA1DBB1DAD
:100FF00080839183A283B3833201F2018081918146
:10100000A281B3818136FAEE9F07A105B10510F0E8
:10101000D701C601F30180839183A283B383F4E0F7
:101020004F0E511C42165306A1F62896CDBFDEBFC7
:10103000DF91CF911F91FF90EF90DF90CF90BF9005
:10104000AF909F908F907F906F905F904F9008959A
:10105000809111228823E1F0A2E4B1E28D919C916C
:101060001197E0E0F8E080A791A714968D919C91EC
:10107000159782A793A718968D919C91199784A78D
:1010800095A71C968D919C911D9786A797A708956B
:10109000E0E0F8E010A611A612A613A614A615A665
:1010A00016A617A608959FB7F8942091162222231A
:1010B000A1F122E030E0B9016F5F7F4FF901E05DFF
:1010C000FD4DE081E695E695EF70E730F8F4D90143
:1010D000A05DBD4D4C91DB01A05DBD4DAC91F0E03C
:1010E000EE0FFF1FEE0FFF1FE859FF4D437050E05A
:1010F00060E070E0762F652F542F44274A0F511D72
:10110000611D711D40835183628373832E5F3F4F46
:101110002031310581F6109216229FBF78948730D6
:1011200088F4E82FF0E0EA5FFF4DE081F0E0EE0F99
:10113000FF1FEE0FFF1FE859FF4D80819181845200
:101140009C4F08958CED95E008952F923F924F9219
:101150005F926F927F928F929F92AF92BF92CF9247
:10116000DF92EF92FF920F931F93CF93DF9300D004
:1011700000D0CDB7DEB7809167208F5F8093672066
:101180000F2EF7E28F2EF0E29F2EF02D0F2EF7E1BB
:10119000CF2EF0E2DF2EF02D0F2EF0E6EF2EF1E253
:1011A000FF2EF02D0F2EF8E5AF2EF1E2BF2EF02D21
:1011B00021E02A8300E010E08370682E712C8B827E
:1011C0009C8210C00F5F1F4F8B819C8108968B8380
:1011D0009C8394E0E90EF11CEA81EF5FEA83F4E07E
:1011E000AF0EB11C0983802F0E945308F801EE0F47
:1011F000FF1FEE0FFF1FE60DF71DEE0FFF1FE95D4E
:10120000FF4D80839183EB81FC812081318182813C
:101210009381820F931F24813581820F931F268132
:101220003781820F931F02969C0112F42D5F3F4F6E
:10123000C9019595879595958795F6018193919329
:101240006F01AC01662757FD6095762F4701F701C6
:101250002080318042805380F3E02F1A310841080A
:101260005108421553056405750568F49C012E5F0D
:101270003F4F1901442437FC4094542CF70120823D
:10128000318242825382F401208031804280538037
:10129000F3E02F0E311C411C511C24163506460666
:1012A000570650F40297AA2797FDA095BA2FF4018C
:1012B00080839183A283B383F981F23008F041C027
:1012C000F4012081318142815381A8EEB3E00E9474
:1012D000C31C6056734E86419109613FFEE77F074C
:1012E000FAEF8F07FFEF9F0774F0603121E8720774
:1012F00025E08207910564F420ED32E040E050E003
:101300000E94F01C09C02CE03EEF4FEF5FEF04C0DD
:1013100024EF31E040E050E0F50120833183428347
:101320005383F981F1110DC088279927DC01821BB5
:10133000930BA40BB50BF50180839183A283B38338
:1013400062C0F981F230A9F5F40120813181428136
:101350005381A8EEB3E00E94C31C6056734E8641D1
:101360009109613FFEE77F07FAEF8F07FFEF9F07C5
:1013700074F0603121E8720725E08207910564F47A
:1013800020ED32E040E050E00E94F01C09C02CE06B
:101390003EEF4FEF5FEF04C024EF31E040E050E05C
:1013A0002093542130935521409356215093572137
:1013B0002AC08981833039F520916C2130916D21CB
:1013C00040916E2150916F21AEEDB3E00E94C31C9D
:1013D00068577C418141910920ED32E040E050E0C6
:1013E0000E94CE1C2A30310538F0293E93E039079F
:1013F00028F028EE33E002C02AE030E020935221AA
:1014000030935321DFCEEA81E83008F4DBCE249616
:10141000CDBFDEBFDF91CF911F910F91FF90EF9075
:10142000DF90CF90BF90AF909F908F907F906F9004
:101430005F904F903F902F9008951F920F920FB69C
:101440000F921124CF92DF92EF92FF920F931F938E
:101450002F933F934F935F936F937F938F939F93BC
:10146000AF93BF93EF93FF930E942202009113204A
:101470001091142020911520309116206B017C01D1
:10148000C01AD10AE20AF30AC0920F20D0921020AB
:10149000E0921120F0921220609313207093142098
:1014A000809315209093162089E8C81683E1D8060A
:1014B000E104F10440F010920E208091A009809385
:1014C000302280E00FC080910E20E82FF0E0909154
:1014D000A009E05DFD4D90838F3021F481E0809381
:1014E000162203C08F5F80930E20FF91EF91BF9172
:1014F000AF919F918F917F916F915F914F913F91AC
:101500002F911F910F91FF90EF90DF90CF900F9050
:101510000FBE0F901F90189582E080935000E0E579
:10152000F0E0818181FFFDCF88ED84BF81E0809371
:1015300040000895E0E0FAE085E08083118282E0D7
:10154000868388E893E186A397A31092E221109204
:10155000E3211092E4211092E5210895E0E0F8E003
:101560008FEF9FEE86A397A382E0808383EF818332
:10157000E2E4F1E210821182128213821482158257
:101580001682178210861186128613861486158697
:10159000168617860895E0E4F6E0808181608083F6
:1015A0008081826080838081846080838081886084
:1015B0008083A0E0B6E08C9180628C93808180640F
:1015C0008083808180688083E0E8F6E080818460A9
:1015D000808381E0818382E08183E0E6F6E084E03D
:1015E000828388E0818380E8818380E48283089518
:1015F000E5EDF1E28BE6808380E8818322E0AF01B4
:1016000069E687E192E20E947101E7E1F2E28789EF
:101610008111FDCF8FEF9FEF0197F1F7E5EDF1E23B
:101620008BE6808383E0818322E0AF0169E687E176
:1016300092E20E947101E7E1F2E287898111FDCF18
:10164000E5EDF1E289E1808381E0818322E0AF0171
:1016500069E687E192E20E947101E7E1F2E287899F
:101660008111FDCFE5EDF1E28AE1808384E08183A1
:1016700022E0AF0169E687E192E20E947101E7E1B1
:10168000F2E287898111FDCF0895E5EDF1E28BE16A
:10169000808388E0818322E0AF0169E687E192E2FE
:1016A0000E947101E7E1F2E287898111FDCF08957F
:1016B000E5EDF1E28CE1808388E0818322E0AF01F7
:1016C00069E687E192E20E947101E7E1F2E287892F
:1016D0008111FDCF0895CF93DF93CFEFDFEFCE01E0
:1016E0000197F1F7CE010197F1F7CE010197F1F7DC
:1016F0000E94F80A0E94450B0E94580BCE010197E8
:10170000F1F7CE010197F1F72197F1F783E080938C
:10171000D721DF91CF910895E0EBF9E0178287E6BA
:1017200086838381816383838481886184838581C7
:1017300083608583E0EAF9E080E18683178290E3A5
:10174000938384838BE0858308950E948C0A0E9492
:10175000CB0AE0ECF1E087858823ECF3E0ECF1E0E4
:101760008485886084870E94AE0A0E949A0AE7E115
:10177000F2E2A0EAB4E0A083B18388EF11968C93E3
:101780000190F081E02D83E2858381E084830E94D3
:101790008C0BE0EAF0E082818760828378940E947B
:1017A0006B0B0E9496060E94FD030E940E02089594
:1017B0000F931F93CF93DF93C0E0D0E161E270E01D
:1017C000A0EFB1E280E090E0E0ECF1E005E318ED9D
:1017D0009C012F5F3F4F4D914993A9014F715527B0
:1017E000452B81F48FEF820F8083892F8F71818346
:1017F0001282028714BF81E0838787858823ECF3F8
:1018000040E001C041E0C9012617370709F744232A
:1018100091F080E290E0E0ECF1E08083892F8F711D
:101820008183128285E3828788ED84BF81E083878C
:1018300087858823ECF381E2E0E0F0E1A0EFB1E2FC
:1018400001900D928A95E1F7DF91CF911F910F9151
:101850000895CF93DF93CDB7DEB72697CDBFDEBF18
:10186000BE016F5F7F4F26E0FB0111922A95E9F7D9
:101870004AE00E94241D9981992389F020E0E0EB41
:10188000F9E0818185FFFDCF90832F5FA1E0B0E07B
:10189000AC0FBD1FA20FB11D9C919111F2CF2696E6
:1018A000CDBFDEBFDF91CF910895FF920F931F93BD
:1018B000CF93DF939C018B01EA01FFB6F894E0EB34
:1018C000F9E0918195FFFDCF8EE28093B009C901C7
:1018D0000E94290CE0EBF9E0918195FFFDCF8EE2AB
:1018E0008093B009C8010E94290CE0EBF9E09181D6
:1018F00095FFFDCF8EE28093B009CE010E94290CA6
:10190000E0EBF9E0818185FFFDCF8AE08093B009AB
:10191000FFBE7894DF91CF911F910F91FF900895B2
:101920000F931F93CF939C018B01CFB7F894E0EBFB
:10193000F9E0918195FFFDCF8CE28093B009C90158
:101940000E94290CE0EBF9E0918195FFFDCF8CE23C
:101950008093B009C8010E94290CE0EBF9E0818175
:1019600085FFFDCF8AE08093B009CFBF7894CF91F7
:101970001F910F910895E0EBF9E0818185FFFDCF84
:1019800081E68093B0098091F12190E00E94290CBA
:10199000E0EBF9E0818185FFFDCF81E68093B0091E
:1019A0008091F52190E00E94290CE0EBF9E0818123
:1019B00085FFFDCF81E68093B0098091F92190E009
:1019C0000E94290CE0EBF9E0818185FFFDCF8AE0E0
:1019D0008093B0090895E0EBF9E0818185FFFDCFA8
:1019E00082E68093B0098091F22190E00E94290C58
:1019F000E0EBF9E0818185FFFDCF82E68093B009BD
:101A00008091F62190E00E94290CE0EBF9E08181C1
:101A100085FFFDCF82E68093B0098091FA2190E0A6
:101A20000E94290CE0EBF9E0818185FFFDCF8AE07F
:101A30008093B0090895E0EBF9E0818185FFFDCF47
:101A400083E68093B0098091F32190E00E94290CF5
:101A5000E0EBF9E0818185FFFDCF83E68093B0095B
:101A60008091F72190E00E94290CE0EBF9E0818160
:101A700085FFFDCF83E68093B0098091FB2190E044
:101A80000E94290CE0EBF9E0818185FFFDCF8AE01F
:101A90008093B0090895E0EBF9E0818185FFFDCFE7
:101AA00084E68093B0098091F82190E00E94290C8F
:101AB000E0EBF9E0818185FFFDCF84E68093B009FA
:101AC0008091002290E00E94290CE0EBF9E08181F6
:101AD00085FFFDCF84E68093B0098091002290E0DD
:101AE0000E94290CE0EBF9E0818185FFFDCF8AE0BF
:101AF0008093B0090895E0EBF9E0818185FFFDCF87
:101B000085E68093B0098091FE2190E00E94290C27
:101B1000E0EBF9E0818185FFFDCF85E68093B00998
:101B20008091002290E00E94290CE0EBF9E0818195
:101B300085FFFDCF85E68093B0098091012290E07A
:101B40000E94290CE0EBF9E0818185FFFDCF85E65D
:101B50008093B0098091FF2190E00E94290CE0EB76
:101B6000F9E0818185FFFDCF8AE08093B009089577
:101B7000E0EBF9E0818185FFFDCF86E68093B00937
:101B80008091FD2190E00E94290CE0EBF9E0818139
:101B900085FFFDCF86E68093B0098091022290E018
:101BA0000E94290CE0EBF9E0818185FFFDCF86E6FC
:101BB0008093B0098091032290E00E94290CE0EB11
:101BC000F9E0818185FFFDCF8AE08093B009089517
:101BD000E0EBF9E0818185FFFDCF87E68093B009D6
:101BE00080910422909105220E94290CE0EBF9E0FB
:101BF000818185FFFDCF87E68093B0098091062221
:101C0000909107220E94290CE0EBF9E0818185FF89
:101C1000FDCF8AE08093B00908951F920F920FB60E
:101C20000F9211242F933F934F935F936F937F9362
:101C30008F939F93AF93BF93CF93DF93EF93FF93D4
:101C4000DFB7F894E0EBF9E081818823ECF7C091ED
:101C5000B00980911522882309F46EC18091142265
:101C6000811109C0C093F12181E0809314228091F9
:101C700004208093132280911422813069F4809192
:101C8000042090911322981749F1C093F52192E016
:101C9000909314228093132280911422823069F44D
:101CA0008091042090911322981749F1C093F92153
:101CB00093E0909314228093132280911422833016
:101CC00069F48091042090911322981749F1C093F0
:101CD000F22194E090931422809313228091142295
:101CE000843069F48091042090911322981749F16F
:101CF000C093F62195E09093142280931322809153
:101D00001422853069F48091042090911322981751
:101D100049F1C093FA2196E0909314228093132204
:101D200080911422863069F48091042090911322CE
:101D3000981749F1C093F32197E090931422809370
:101D4000132280911422873069F4809104209091AD
:101D50001322981749F1C093F72198E09093142229
:101D60008093132280911422883069F4809104209A
:101D700090911322981749F1C093FB2199E0909319
:101D800014228093132280911422893069F4809167
:101D9000042090911322981749F1C093F8219AE0FA
:101DA0009093142280931322809114228A3069F434
:101DB0008091042090911322981749F1C093FC213F
:101DC0009BE09093142280931322809114228B30F5
:101DD00069F48091042090911322981749F1C093DF
:101DE00000229CE09093142280931322809114226D
:101DF0008C3069F48091042090911322981749F156
:101E0000C093FE219DE09093142280931322809131
:101E100014228D3069F48091042090911322981738
:101E200049F1C09300229EE09093142280931322E4
:101E3000809114228E3069F48091042090911322B5
:101E4000981749F1C09301229FE090931422809348
:101E50001322809114228F3069F480910420909194
:101E60001322981749F1C093FF2190E19093142217
:101E70008093132280911422803169F48091042090
:101E800090911322981749F1C093FD2191E190930D
:101E900014228093132280911422813169F480915D
:101EA000042090911322981769F1C093022292E1C5
:101EB000909314228093132280911422823169F42A
:101EC0008091042090911322981791F1C0930322DE
:101ED00093E19093142280931322809114228331F2
:101EE00089F48091042090911322981709F12C2FE6
:101EF00030E0209304223093052294E19093142241
:101F00008093132280911422843191F490911322B2
:101F100080910420981761F08C2F90E08093062226
:101F20009093072210921422109215220E94D80B2F
:101F300080911522811190C08C2F90E0FC01E1541A
:101F4000F109E032F10508F087C0E454FF4F0C942A
:101F50000F1D81E0809305207FC010920520109214
:101F600012227AC01092052081E08093122274C060
:101F70001092052082E0809312226EC082E080934E
:101F800005206AC00E94BB0C8AE02FEF3FEFF901E9
:101F90003197F1F78150D9F78AE08093D7210E94D9
:101FA000EB0C8AE02FEF3FEFF9013197F1F7815009
:101FB000D9F78AE08093D7210E941B0D8AE02FEF8A
:101FC0003FEFF9013197F1F78150D9F78AE080931B
:101FD000D7210E944B0D8AE02FEF3FEFF901319797
:101FE000F1F78150D9F78AE08093D7210E947B0DC9
:101FF0008AE02FEF3FEFF9013197F1F78150D9F7E0
:102000008AE08093D7210E94B80D8AE02FEF3FEF3E
:10201000F9013197F1F78150D9F78AE08093D72100
:102020000E94E80D8AE02FEF3FEFF9013197F1F7B9
:102030008150D9F78AE08093D7210EC0FFCF81E08D
:102040008093152209C01092152206C081E080936A
:10205000112202C010921122809104208F5F809380
:102060000420DFBF7894FF91EF91DF91CF91BF9172
:10207000AF919F918F917F916F915F914F913F9120
:102080002F910F900FBE0F901F9018954F925F9257
:102090006F927F92AF92BF92CF92DF92EF92FF92B8
:1020A0000F931F93CF93DF93C0900020D090012017
:1020B000E0900220F0900320C6ECD0E20F2EF8E969
:1020C000AF2EF1E2BF2EF02DF5012081318142814A
:1020D0005381C701B6010E94061C288139814A81BB
:1020E0005B810E94FB192EEA38ED4FE75FE30E9407
:1020F000061C2B013C0100E811E220E038E44DE130
:102100005AE3F80160817181828193810E94061CEB
:102110009B01AC01C301B2010E94FB196883798362
:102120008A839B83F5012481358146815781C701CC
:10213000B6010E94061C2C813D814E815F810E9468
:10214000FB192EEA38ED4FE75FE30E94061C6B0196
:102150007C0120E038E44DE15AE3F80164817581A7
:10216000868197810E94061C9B01AC01C701B601C4
:102170000E94FB196C837D838E839F83DF91CF91B7
:102180001F910F91FF90EF90DF90CF90BF90AF9095
:102190007F906F905F904F9008952F923F924F9253
:1021A0005F926F927F928F929F92AF92BF92CF92E7
:1021B000DF92EF92FF920F931F93CF93DF93CDB7F0
:1021C000DEB76097CDBFDEBFA6ECB0E28D919D91EA
:1021D0000D90BC91A02D89879A87AB87BC870F2E65
:1021E000F0E8AF2EF1E2BF2EF02D9C01AD01F5011C
:1021F00060817181828193810E94FA196B017C0157
:102200002DEC3CEC4CEC5DE30E94061C2DEC3CEC10
:102210004CEC5DE30E94061C2B013C010AEB10E232
:10222000D8016D937D938D939C9313978091CA20D1
:102230009091CB20A091CC20B091CD208D879E870E
:10224000AF87B88B9C01AD01D50114966D917D913E
:102250008D919C9117970E94FA196D837E838F83CD
:1022600098872DEC3CEC4CEC5DE30E94061C2DECB9
:102270003CEC4CEC5DE30E94061C4B015C010F2E14
:10228000FEEA2F2EF0E23F2EF02DF10160837183E4
:10229000828393838091002090910120A09102205D
:1022A000B091032089839A83AB83BC839C01AD01E9
:1022B000C301B2010E94061CD80118962D913D91D0
:1022C0004D915C911B970E94FB192B013C01F80179
:1022D000608771878287938729813A814B815C81EE
:1022E000C501B4010E94061CD10118962D913D91A3
:1022F0004D915C911B970E94FB194B015C01F10110
:102300006087718782879387A7019601C701B6010D
:102310000E94FB192DEC3CEC4CEC5DE30E94061C8A
:102320009B01AC01C301B2010E94FB190F2EF8E919
:102330006F2EF1E27F2EF02DD3012D913D914D9125
:102340005C910E94FB196B017C01F8016483758329
:10235000868397832D813E814F815885CA01B901BB
:102360000E94FB192DEC3CEC4CEC5DE30E94061C3A
:102370009B01AC01C501B4010E94FB19D301149665
:102380002D913D914D915C9117970E94FB194B0146
:102390005C01F1016483758386839783A7019601AD
:1023A00069817A818B819C810E94061C9B01AC0112
:1023B00069857A858B859C850E94FB19A6ECB0E225
:1023C0006D937D938D939C931397A50194016981DF
:1023D0007A818B819C810E94061C9B01AC016D85DA
:1023E0007E858F8598890E94FB196093CA2070931F
:1023F000CB208093CC209093CD206096CDBFDEBFC4
:10240000DF91CF911F910F91FF90EF90DF90CF90D0
:10241000BF90AF909F908F907F906F905F904F9004
:102420003F902F9008952F923F924F925F926F921C
:102430007F928F929F92AF92BF92CF92DF92EF9254
:10244000FF920F931F93CF93DF93CDB7DEB7A8977B
:10245000CDBFDEBF06EA10E2D801CD90DD90ED9051
:10246000FC904090002050900120609002207090DD
:102470000320A7019601E8E9F1E260817181828180
:1024800093810E94FA19A30192010E94061CA6ECF6
:10249000B0E22D913D914D915C910E94FB19698BA9
:1024A0007A8B8B8B9C8BD301C201B0588D839E831A
:1024B000AF83B887AEE8B0E28D909D90AD90BC90B0
:1024C000A6E9B0E28D919D910D90BC91A02D8983DC
:1024D0009A83AB83BC832FE632E143E85AE3C3011E
:1024E000B2010E94061C6D8B7E8B8F8B988F298189
:1024F0003A814B815C81C501B4010E94FB199B01AB
:10250000AC016D817E818F8198850E94061C2D898A
:102510003E894F89588D0E94FB19EEE9F0E2208137
:102520003181428153810E94FB1969877A878B87A9
:102530009C870F2EF6E82F2EF0E23F2EF02DD101D2
:102540008D919D910D90BC91A02D8D879E87AF8719
:10255000B88B9C01AD016D817E818F8198850E9431
:10256000061C698F7A8F8B8F9C8F9B01AC016981D0
:102570007A818B819C810E94FB196D8F7E8F8F8F5A
:1025800098A3298D3A8D4B8D5C8DC501B4010E94B5
:10259000FB19698F7A8F8B8F9C8F26EA3BE944E485
:1025A0005BE3C301B2010E94061C69A37AA38BA35B
:1025B0009CA329893A894B895C89E0E8F1E2608132
:1025C0007181828193810E94FA196DA37EA38FA3EA
:1025D00098A72AE939E949E95EE369857A858B8517
:1025E0009C850E94FB1969837A838B839C839B0162
:1025F000AC0169857A858B859C850E948B1A4B017D
:102600005C0129813A814B815C81698D7A8D8B8D4A
:102610009C8D0E948B1A69837A838B839C832DA166
:102620003EA14FA158A5C501B4010E94061C9B0103
:10263000AC0169897A898B899C890E94FB19A6EC77
:10264000B0E26D937D938D939C9313972DA13EA142
:102650004FA158A569817A818B819C810E94061CBB
:102660009B01AC01C701B6010E94FB19F801608310
:10267000718382839383A501940169857A858B8513
:102680009C850E94061C9B01AC0169857A858B851F
:102690009C850E94FA196B017C01AEE9B0E26D9352
:1026A0007D938D939C931397A50194016D8D7E8DE1
:1026B0008F8D98A10E94061C9B01AC016D8D7E8DB3
:1026C0008F8D98A10E94FA194B015C01E6E9F0E2B6
:1026D0006083718382839383A701960169817A81E4
:1026E0008B819C810E94061C9B01AC01698D7A8DB7
:1026F0008B8D9C8D0E94FA19AEE8B0E26D937D93AC
:102700008D939C93139729A13AA14BA15CA16D8550
:102710007E858F8598890E94FB196B017C01A5013C
:10272000940169817A818B819C810E94061C9B01A6
:10273000AC01C701B6010E94FA19F10160837183EF
:1027400082839383D8011496CD90DD90ED90FC9018
:102750001797A701960160919C2170919D2180910E
:102760009E2190919F210E94FA199B01AC01C30107
:10277000B2010E94061C2091CA203091CB204091CA
:10278000CC205091CD200E94FB196D877E878F87CA
:10279000988B8090922090909320A0909420B0905D
:1027A000952040909A2050909B2060909C207090A3
:1027B0009D20A3019201C501B4010E94FB199B0158
:1027C000AC016D817E818F8198850E94061C9B01E2
:1027D000AC016D897E898F89988D0E94FB192091AB
:1027E000A2203091A3204091A4205091A5200E94C6
:1027F000FB1969877A878B879C87D10114968D9105
:102800009D910D90BC91A02D89839A83AB83BC834D
:102810009C01AD016D817E818F8198850E94061C8F
:102820006D837E838F8398879B01AC01C301B201C6
:102830000E94FB19698B7A8B8B8B9C8B2D813E813F
:102840004F815885C501B4010E94FB196D8B7E8BA9
:102850008F8B988F2D853E854F8558896091842177
:102860007091852180918621909187210E94FA198B
:102870002B013C012AE939E949E95EE369857A855A
:102880008B859C850E94FB194B015C019B01AC016F
:1028900069857A858B859C850E948B1A6D837E83E2
:1028A0008F839887A50194016D897E898F89988D82
:1028B0000E948B1A4B015C01A30192016D817E8104
:1028C0008F8198850E94061C9B01AC016D857E85D9
:1028D0008F8598890E94FB196093CA207093CB2042
:1028E0008093CC209093CD20A3019201C501B40127
:1028F0000E94061C9B01AC01C701B6010E94FB1996
:10290000F80164837583868397832D813E814F818F
:10291000588569857A858B859C850E94061C9B015C
:10292000AC0169857A858B859C850E94FA192B01FB
:102930003C016093A2207093A3208093A4209093E5
:10294000A5202D813E814F81588569897A898B899F
:102950009C890E94061C9B01AC0169897A898B893C
:102960009C890E94FA196B017C0160939A207093F4
:102970009B2080939C2090939D20A3019201C501F0
:10298000B4010E94061C9B01AC016D897E898F8970
:10299000988D0E94FA1960939220709393208093EF
:1029A00094209093952029813A814B815C8169A183
:1029B0007AA18BA19CA10E94FB192B013C01A701CC
:1029C0009601C501B4010E94061C9B01AC01C30124
:1029D000B2010E94FA19D10114966D937D938D93E3
:1029E0009C931797A896CDBFDEBFDF91CF911F9123
:1029F0000F91FF90EF90DF90CF90BF90AF909F909E
:102A00008F907F906F905F904F903F902F900895A0
:102A10002F923F924F925F926F927F928F929F92EE
:102A2000AF92BF92CF92DF92EF92FF920F931F93DC
:102A3000CF93DF93CDB7DEB76497CDBFDEBFE2E2C1
:102A4000F1E2A2E1B1E24D915D916D917C9113971C
:102A5000408351836283738314964D915D916D9190
:102A60007C911797448355836683778318968D915D
:102A70009D910D90BC91A02D80879187A287B387EF
:102A80008091002090910120A0910220B09103201C
:102A90008F87988BA98BBA8B0F2EF8E5CF2EF1E29A
:102AA000DF2EF02D0F2EF6ECEF2EF0E2FF2EF02DA4
:102AB0000F2EF2E18F2EF1E29F2EF02D0F2EF1EF6F
:102AC0002F2EF1E23F2EF02DA2E0B1E2A983BA83CE
:102AD0000F2EF2ED6F2EF0E27F2EF02DE5EFF1E2FA
:102AE000EB83FC8382EE90E28D839E83A8E9B1E2C2
:102AF000AF83B887E9EFF1E2E987FA870F2EF2EFAB
:102B0000AF2EF0E2BF2EF02D02E010E0EB86FC8647
:102B1000CD86DE866B8A7C8AAD85BE856D917D9182
:102B20008D919D91AD87BE87EB85FC85C190D1903D
:102B3000E190F190EB87FC870E94261B20E030E0BB
:102B400040E251E40E948B1AA70196010E94FA19F3
:102B50002B013C01D4016D937D938D939D934D0189
:102B6000F10161911F0170E080E090E00E94261B5E
:102B70009B01AC01C301B2010E94061CA981BA816C
:102B80006D937D938D939D93A983BA83EB88FC8885
:102B90002F85388949895A89C301B2010E94061CD0
:102BA000F70120813181428153810E94FB192B0161
:102BB0003C0120E030E048E452EC0E94871A882370
:102BC0005CF020E030E048E452E4C301B2010E942E
:102BD000FB1B181654F011C00F2E412C512CF8E499
:102BE0006F2EF2EC7F2EF02D08C00F2E412C512CB1
:102BF000F8E46F2EF2E47F2EF02DD7014D925D9216
:102C00006D927C921397EB81FC816191EB83FC8345
:102C100070E080E090E00E94261B9B01AC01C301A4
:102C2000B2010E94061CAD81BE816D937D938D9390
:102C30009D93AD83BE83EF81F885C190D190E190E3
:102C4000F190EF83F887A985BA856D91A987BA8736
:102C500070E080E090E00E94261B9B01AC01C70160
:102C6000B6010E94061CF5016193719381939193C3
:102C70005F01015011098B899C8904968B8B9C8B79
:102C80000115110509F048CF4090A0215090A121D5
:102C90006090A2217090A3216091542170915521E0
:102CA00080915621909157210E94261BA3019201E9
:102CB0000E94FA196B017C0160931A2170931B2109
:102CC00080931C2190931D216091F32170E080E09E
:102CD00090E00E94261B9B01AC01C701B6010E9437
:102CE000061C4B015C0160930A2170930B218093B9
:102CF0000C2190930D2120910020309101204091D2
:102D0000022050910320C701B6010E94061C2091A9
:102D1000DA203091DB204091DC205091DD200E94B0
:102D2000FB196B017C0120E030E048EC52EC0E9482
:102D3000871A88235CF020E030E048EC52E4C701B9
:102D4000B6010E94FB1B181654F011C00F2EC12CA7
:102D5000D12CF8ECEF2EF2ECFF2EF02D08C00F2E48
:102D6000C12CD12CF8ECEF2EF2E4FF2EF02DC09206
:102D7000DA20D092DB20E092DC20F092DD200F2ED2
:102D8000F0EF2F2EF1E23F2EF02DD10117966C912E
:102D900070E080E090E00E94261B9B01AC01C7011F
:102DA000B6010E94061C6B017C0102EE10E2F801E4
:102DB0006087718782879387D1011B966C9170E041
:102DC00080E090E00E94261B9B01AC01C301B20190
:102DD0000E94061C2B013C016093FA207093FB209B
:102DE0008093FC209093FD200F2EF2E32F2EF1E232
:102DF0003F2EF02DE2EFF0E22081318142815381BC
:102E0000A2E0B1E26D917D918D919C910E94FA19A1
:102E1000F80120813181428153810E94FB19D10147
:102E20006D937D938D939C9313972091F620309111
:102E3000F7204091F8205091F9206091062170917F
:102E4000072180910821909109210E94FA19F80127
:102E500024813581468157810E94FB19D101149646
:102E60006D937D938D939C931797A3019201C50158
:102E7000B4010E94FA199B01AC01C701B6010E947E
:102E8000FB19F10160877187828793876496CDBFB4
:102E9000DEBFDF91CF911F910F91FF90EF90DF90F8
:102EA000CF90BF90AF909F908F907F906F905F90EA
:102EB0004F903F902F900895009709F041C0809166
:102EC000842090918520843F21E0920721F08C3B63
:102ED00022E0920791F4E0E0F6E02581206225836C
:102EE000E0E4F6E0258120642583258120682583A0
:102EF000E0E8F6E0258124602583883522E092070A
:102F000021F0843823E0920791F4E0E0F6E0268196
:102F100020622683E0E4F6E0268120642683268171
:102F200020682683E0E8F6E0268124602683893E37
:102F3000934008F44BC0109284201092852046C024
:102F4000019709F043C080918420909185208D37AE
:102F5000910559F4E0E0F6E0268120622683E0E462
:102F6000F6E02581206425831BC08A3F910549F442
:102F7000E0E4F6E02681206426832581206825830D
:102F80001EC0873721E0920759F4E0E4F6E086811D
:102F900080688683E0E8F6E085818460858316C0DA
:102FA000843F21E0920759F4E0E8F6E086818460EE
:102FB0008683E0E0F6E085818062858307C0853FF7
:102FC000914020F0109284201092852080918420DE
:102FD0009091852001968093842090938520089578
:102FE000CF93DF9300D000D0CDB7DEB70E94A50B02
:102FF000C12CD12C7601412C512C32010F2E212CC9
:10300000F6E03F2EF02D0E9422024B015C016093FE
:10301000DE217093DF218093E0219093E121EAED9E
:10302000F1E2808191818401081B190B0093D82162
:103030001093D9218092DA219092DB21A092DC2199
:10304000B092DD214091E8215091E9216091EA217F
:103050007091EB21CB01BA01600F711F811D911D91
:103060006093E8217093E9218093EA219093EB210A
:103070002091E6213091E7212F5F3F4F2093E621F9
:103080003093E72125363105D4F024E630E040E0E6
:1030900050E00E94CE1C2093EC213093ED21409310
:1030A000EE215093EF211092E6211092E721109229
:1030B000E8211092E9211092EA211092EB21B80147
:1030C00080E090E00E94241B20E034E244E759E4D1
:1030D0000E948B1A6093002070930120809302203D
:1030E000909303200E946B040E9494050E94131287
:1030F0000E940815C814D904EA04FB0408F0DFC0D4
:1031000080E18093A40975016401F0E2CF0EFEE432
:10311000DF1EE11CF11C0E94A508809152219091B4
:103120005321449708F0CBC0E8E5F1E2808191811A
:10313000A281B3818E33FEEF9F07FFEFAF07BF077A
:10314000BCF540915C2150915D2160915E217091B0
:103150005F214E335E4F6F4F7F4F0CF0B0C04091F8
:1031600054215091552160915621709157214E3331
:103170005E4F6F4F7F4F0CF036C1E0E0F6E0858187
:1031800080628583E0E4F6E08581806485838581C3
:1031900080688583E0E8F6E085818460858388E047
:1031A0002FEF3FEFF9013197F1F78150D9F7FFCFBA
:1031B000833C9140A105B1050CF481C080915C2154
:1031C00090915D21A0915E21B0915F218E339E4F41
:1031D000AF4FBF4F0CF073C0809154219091552197
:1031E000A0915621B09157218E339E4FAF4FBF4FC4
:1031F0000CF065C080911122882309F4EBC0109275
:1032000028081092290810922A0810922B08109270
:103210002C0810922D0810922E0810922F08109250
:1032200011222FE030E0F101858180628583809159
:1032300045068064809345068091450680688093AA
:103240004506809185068460809385068FEF9FEF09
:103250000197F1F78FEF9FEF0197F1F78FEF9FEF56
:103260000197F1F78FEF9FEF0197F1F78681806269
:103270008683809146068064809346068091460648
:1032800080688093460680918606846080938606D7
:103290008FEF9FEF0197F1F78FEF9FEF0197F1F716
:1032A0008FEF9FEF0197F1F78FEF9FEF0197F1F706
:1032B0002150310909F0B7CF84E08093D721481419
:1032C00059046A047B0408F074C024013501F0E25B
:1032D0004F0EFEE45F1E611C711C80910520882347
:1032E00039F1813009F065C006EC10E220E030E0F1
:1032F00040E251E4F80164817581868197810E94E2
:10330000061C0E94F31A4B015C0120E030E040E211
:1033100051E4F80160817181828193810E94061CD1
:103320000E94F31ADC01CB01B4010E94900C41C051
:103330000091122210E0000F111F000F111FF80161
:10334000EE50FF4D20E030E048EC52E460817181A6
:10335000828193810E948B1A0E94F31A69837A8377
:103360008B839C83F801EE51FF4D20E030E048EC68
:1033700052E460817181828193810E948B1A0E9444
:10338000F31A4B015C01F801EE5FFE4D20E030E0E6
:1033900048EC52E460817181828193810E948B1A92
:1033A0000E94F31ADC01CB0149815A81B4010E94C9
:1033B000550C8091522190915321883C910570F4D5
:1033C00081E090E00E945C170E94BB060E942808E2
:1033D000A89519CE81E08093112223CF80E090E060
:1033E0000E945C17F1CF833C9140A105B1050CF020
:1033F000F3CE65CF5058BB27AA270ED0C2C1B3D198
:1034000030F0B8D120F031F49F3F11F41EF483C1A5
:103410000EF4E095E7FB79C1E92FC4D180F3BA1728
:10342000620773078407950718F071F49EF5DCC1F5
:103430000EF4E0950B2EBA2FA02D0B01B9019001CF
:103440000C01CA01A0011124FF27591B99F0593F13
:1034500050F4503E68F11A16F040A22F232F342F5B
:103460004427585FF3CF469537952795A795F040A9
:103470005395C9F77EF41F16BA0B620B730B840BBE
:10348000BAF09150A1F0FF0FBB1F661F771F881F76
:10349000C2F70EC0BA0F621F731F841F48F48795CE
:1034A00077956795B795F7959E3F08F0B3CF9395BD
:1034B000880F08F09927EE0F979587950895DF9369
:1034C000DD27B92FBF7740E85FE3161617064807D8
:1034D0005B0710F4D92F93D19F938F937F936F93B2
:1034E0003AD2E8EBF1E01AD14CD12F913F914F91B4
:1034F0005F9198D1DD2349F09058A2EA2AED3FE090
:1035000049EC5FE3D0785D2787DFDF913AC1D9D0FE
:1035100008F481E008950CD034C12CD140F023D1BF
:1035200030F021F45F3F19F0F0C051115EC1F3C0DB
:1035300039D198F39923C9F35523B1F3951B550B52
:10354000BB27AA2762177307840738F09F5F5F4F76
:10355000220F331F441FAA1FA9F333D00E2E3AF0B7
:10356000E0E830D091505040E695001CCAF729D0D1
:10357000FE2F27D0660F771F881FBB1F2617370720
:103580004807AB07B0E809F0BB0B802DBF01FF2750
:1035900093585F4F2AF09E3F510568F0B6C025C191
:1035A0005F3FECF3983EDCF3869577956795B7958A
:1035B000F7959F5FC9F7880F911D9695879597F9A5
:1035C0000895E1E0660F771F881FBB1F621773071E
:1035D0008407BA0720F0621B730B840BBA0BEE1F33
:1035E00088F7E095089504D06894B111FEC008955D
:1035F000E1D088F09F5790F0B92F9927B751A0F0EC
:10360000D1F0660F771F881F991F1AF0BA95C9F776
:1036100012C0B13081F0E8D0B1E00895E5C0672F65
:10362000782F8827B85F39F0B93FCCF38695779526
:103630006795B395D9F73EF490958095709561950F
:103640007F4F8F4F9F4F0895E89409C097FB3EF43A
:1036500090958095709561957F4F8F4F9F4F9923DF
:10366000A9F0F92F96E9BB279395F695879577955D
:103670006795B795F111F8CFFAF4BB0F11F460FF1D
:103680001BC06F5F7F4F8F4F9F4F16C0882311F075
:1036900096E911C0772321F09EE8872F762F05C089
:1036A000662371F096E8862F70E060E02AF09A9524
:1036B000660F771F881FDAF7880F9695879597F919
:1036C0000895990F0008550FAA0BE0E8FEEF1616B3
:1036D0001706E807F907C0F012161306E407F50706
:1036E00098F0621B730B840B950B39F40A2661F07A
:1036F000232B242B252B21F408950A2609F4A1401D
:10370000A6958FEF811D811D089597F99F6780E829
:1037100070E060E008959FEF80EC0895DF93CF9311
:103720001F930F93FF92EF92DF927B018C016894BD
:1037300005C0DA2EEF0176D0FE01E894A59125911F
:10374000359145915591AEF3EF0166DEFE0197018B
:10375000A801DA9479F7DF90EF90FF900F911F9115
:10376000CF91DF91089500240A94161617061806C3
:103770000906089500240A94121613061406050675
:103780000895092E0394000C11F4882352F0BB0F06
:1037900040F4BF2B11F460FF04C06F5F7F4F8F4F69
:1037A0009F4F089557FD9058440F551F59F05F3FA4
:1037B00071F04795880F97FB991F61F09F3F79F053
:1037C00087950895121613061406551FF2CF4695D5
:1037D000F1DF08C0161617061806991FF1CF869557
:1037E0007105610508940895E894BB27662777273B
:1037F000CB0197F9089565DF08F48FEF08959B01D9
:10380000AC0160E070E080E89FE385CE0BD0B9CFDB
:10381000AADF28F0AFDF18F0952309F076CF7BCF31
:103820001124E3CFBFDFA0F3959FD1F3950F50E0B4
:10383000551F629FF001729FBB27F00DB11D639F62
:10384000AA27F00DB11DAA1F649F6627B00DA11D08
:10385000661F829F2227B00DA11D621F739FB00DAE
:10386000A11D621F839FA00D611D221F749F33271E
:10387000A00D611D231F849F600D211D822F762FB7
:103880006A2F11249F5750408AF0E1F088234AF0B4
:10389000EE0FFF1FBB1F661F771F881F9150504000
:1038A000A9F79E3F510570F030CF9FCF5F3FECF3FB
:1038B000983EDCF3869577956795B795F795E795EC
:1038C0009F5FC1F7FE2B880F911D9695879597F9FD
:1038D000089511F40EF41FCF41C06CDFD0F399238B
:1038E000D9F3CEF39F57550B87FF46D00024A0E6AF
:1038F00040EA900180585695979528F4805C660FB1
:10390000771F881F20F026173707480730F4621BFF
:10391000730B840B202931294A2BA6951794079401
:10392000202531254A2758F7660F771F881F20F07A
:1039300026173707480730F4620B730B840B200DF2
:10394000311D411DA09581F7B901842F9158880F31
:103950009695879508959B01AC0158CF9F3F31F014
:10396000915020F4879577956795B795880F911DAD
:103970009695879597F9089591505040660F771F57
:10398000881FD2F708950E94151DA59F900DB49F22
:10399000900DA49F800D911D11240895A1E21A2E6F
:1039A000AA1BBB1BFD010DC0AA1FBB1FEE1FFF1FE3
:1039B000A217B307E407F50720F0A21BB30BE40B33
:1039C000F50B661F771F881F991F1A9469F760957A
:1039D0007095809590959B01AC01BD01CF01089534
:1039E000052E97FB1EF400940E94071D57FD07D07B
:1039F0000E94CE1C07FC03D04EF40C94071D50957A
:103A00004095309521953F4F4F4F5F4F08959095CA
:103A10008095709561957F4F8F4F9F4F0895EE0F62
:103A2000FF1F0590F491E02D0994A29FB001B39F70
:103A3000C001A39F700D811D1124911DB29F700DB7
:103A4000811D1124911D0895BB274A3031F499231B
:103A500022F4BDE2909581959F4F0C94301DBB27B9
:103A6000FB015527AA27880F991FAA1FA41710F03A
:103A7000A41B83955051B9F7A05DAA3308F0A95D46
:103A8000A193009779F7B111B1931192CB010C94E6
:103A9000491DDC01FC01672F71917723E1F7329713
:103AA00004C07C916D9370836291AE17BF07C8F319
:063AB0000895F894FFCF19
:0E3AB6000AD7A33A010201020300040506002C
:00000001FF
