:100000000C94F3000C9410010C9410010C9410014A
:100010000C9410010C9410010C9410010C9410011C
:100020000C9410010C9410010C9410010C9410010C
:100030000C9410010C9410010C9410010C941001FC
:100040000C9410010C9410010C9410010C941001EC
:100050000C9410010C9410010C9410010C941001DC
:100060000C9410010C9410010C9410010C941001CC
:100070000C9410010C9410010C9410010C941001BC
:100080000C9410010C9410010C9410010C941001AC
:100090000C9410010C9410010C9410010C9410019C
:1000A0000C9410010C9410010C9410010C9410018C
:1000B0000C9410010C9410010C9469020C944402ED
:1000C0000C9410010C9410010C9410010C9410016C
:1000D0000C9410010C9410010C9410010C9410015C
:1000E0000C9410010C9410010C9410010C9410014C
:1000F0000C9410010C9410010C9410010C9410013C
:100100000C9410010C9410010C9410010C9410012B
:100110000C9410010C9410010C9410010C9410011B
:100120000C9410010C9410010C9410010C9410010B
:100130000C9410010C9410010C9410010C941001FB
:100140000C9410010C9410010C9410010C941001EB
:100150000C9410010C9410010C9410010C941001DB
:100160000C94150A0C9410010C9410010C94E80CDA
:100170000C9410010C9410010D0E220E260E2A0E66
:10018000A10EAA0EAA0EAA0EAA0EAA0EAA0EAA0EB8
:10019000A40EA80EAA0EAA0EAA0E9C0E9D0EAA0EC2
:1001A000AA0EAA0EAA0E110E160EAA0EAA0EAA0EBC
:1001B000AA0EAA0EAA0E1C0E084AD73B3BCE016E11
:1001C00084BCBFFDC12F3D6C74319ABD56833DDAAE
:1001D0003D00C77F11BED9E4BB4C3E916BAAAABEBD
:1001E000000000803F0011241FBECFEFCDBFDFE233
:1001F000DEBF10E2A0E0B0E2E6EEF8E302C0059058
:100200000D92A232B107D9F712E2A2E2B0E201C028
:100210001D92A434B107E1F70E9481160C94711C61
:100220000C940000FC01608371834863DB0111962C
:100230004C93A081B18115962C930190F081E02D13
:1002400081E084830895DC01ED91FC9184818370C9
:100250000895FC01878980E008950F93CF93DF9381
:10026000FC01293098F5093098F58789811132C051
:1002700081E0878B108E660F6283222369F0A42FA2
:10028000B52F40E050E08D91EF01C40FD51F8B8357
:100290004F5F5F4F4217B8F3238B048B158A168A82
:1002A0008389882341F082818E7F0190F081E02D47
:1002B000868381E012C08489882371F08281816005
:1002C0000190F081E02D868381E007C080E005C0C9
:1002D00080E003C080E001C081E0DF91CF910F9109
:1002E00008950F9300E00E942D010F9108950F9340
:1002F000042F20E040E050E00E942D010F9108956E
:10030000FC01A081B18114969C91149792FF03C0C7
:1003100084E0808F02C083E0808F986014969C9365
:10032000178A0895CF93DF93FC0193892489A081D4
:10033000B18114968C91149784FF07C083E01396C3
:100340008C9385E0808F178A1CC08589891758F4A3
:100350008589EF01C80FD11D8B8117968C938589F4
:100360008F5F858B0EC08689821728F48281816019
:1003700016968C9306C083E013968C9381E0808F51
:10038000178ADF91CF910895FC018689883070F437
:10039000A081B18117968C919689DF01A90FB11DBB
:1003A0001B968C9386898F5F868B08C0A081B18154
:1003B00083E013968C9382E0808F178A94898689D4
:1003C000891730F40190F081E02D82E08383089555
:1003D000A081B18187E013968C9381E0808F178A8A
:1003E0000895DC01ED91FC912481322F3C7019F0CD
:1003F0000E948001089526FF03C00E949201089583
:1004000022231CF40E94C401089526E0FC01208FE1
:10041000178A0895FC01608F178A089588ED84BFBC
:100420008FE180938000E0E8F0E0828180FDFDCFE5
:100430000895E0E8F0E080818C7F816098ED94BFC2
:1004400080830895E091200AF091210AEE0FFF1FAA
:100450002091F6213091F7214091F8215091F92116
:10046000A0E1B7E20E94DB1B6E0F7F1F811D911D73
:1004700008950E94220228EE33E040E050E00E94FE
:10048000E61BCA01B90108951F920F920FB60F9291
:1004900011248F939F93AF93BF938091F6219091F6
:1004A000F721A091F821B091F9210196A11DB11D6C
:1004B0008093F6219093F721A093F821B093F9212E
:1004C000BF91AF919F918F910F900FBE0F901F9092
:1004D00018951F920F920FB60F9211242F933F93EE
:1004E0004F935F936F937F938F939F93AF93BF933C
:1004F000EF93FF938BE192E20E94F101FF91EF9164
:10050000BF91AF919F918F917F916F915F914F912B
:100510003F912F910F900FBE0F901F9018952F9223
:100520003F924F925F926F927F928F929F92AF9283
:10053000BF92CF92DF92EF92FF920F931F93CF93D0
:10054000DF93E0E4F6E08581806485830F2EF0E19F
:100550002F2EF7E23F2EF02D412C512C3201812C11
:10056000912C5401C12CD12C760113E4CBE1D2E2C1
:100570001093E82106E021E048EE51E269E6CE0161
:100580000E942D018F898111FDCF8B852C8590E0F4
:10059000982F8827820F911DAA2797FDA095BA2F23
:1005A000480E591E6A1E7B1E8D852E8590E0982F61
:1005B0008827820F911DAA2797FDA095BA2F880E34
:1005C000991EAA1EBB1E8F85288990E0982F882728
:1005D000820F911DAA2797FDA095BA2FC80ED91E8C
:1005E000EA1EFB1E88EC90E00197F1F7A89581E0E8
:1005F000281A310809F0BCCFE0E4F6E08681806477
:100600008683CCEDD1E2C301B20120E137E240E0C4
:1006100050E00E94081CCA01B9010E943E1A68837A
:1006200079838A839B83C501B40120E137E240E0EE
:1006300050E00E94081CCA01B9010E943E1A6C8356
:100640007D838E839F83C701B60120E137E240E0BE
:1006500050E00E94081CCA01B9010E943E1A688736
:1006600079878A879B87DF91CF911F910F91FF90A8
:10067000EF90DF90CF90BF90AF909F908F907F9042
:100680006F905F904F903F902F9008952F923F92E0
:100690004F925F926F927F928F929F92AF92BF9292
:1006A000CF92DF92EF92FF920F931F93CF93DF933E
:1006B000E0E4F6E08581806885830F2EF0E12F2E3F
:1006C000F7E23F2EF02D412C512C3201812C912C40
:1006D0005401C12CD12C76011BE3CBE1D2E2109363
:1006E000E82106E021E048EE51E269E6CE010E94F1
:1006F0002D018F898111FDCF8B852C8590E0982F5E
:100700008827820F911DAA2797FDA095BA2F480E22
:10071000591E6A1E7B1E8D852E8590E0982F882796
:10072000820F911DAA2797FDA095BA2F880E991EBA
:10073000AA1EBB1E8F85288990E0982F8827820FDC
:10074000911DAA2797FDA095BA2FC80ED91EEA1EA3
:10075000FB1E88EC90E00197F1F7A89581E0281A3C
:10076000310809F0BCCFE0E4F6E08681806886833A
:10077000C0EDD1E2C301B20120E137E240E050E038
:100780000E94081CCA01B9010E943E1A688379833D
:100790008A839B83C501B40120E137E240E050E049
:1007A0000E94081CCA01B9010E943E1A6C837D8315
:1007B0008E839F83C701B60120E137E240E050E01D
:1007C0000E94081CCA01B9010E943E1A68877987F5
:1007D0008A879B87DF91CF911F910F91FF90EF90B8
:1007E000DF90CF90BF90AF909F908F907F906F9051
:1007F0005F904F903F902F900895CF93DF93E0ED5F
:10080000F1E2108211821282138214821582168202
:1008100017821086118612861386ECEDF1E21082A3
:100820001182128213821482158216821782108618
:100830001186128613860E948F020E9446034FE0A3
:1008400050E0C0E0D6E0E0E4F6E0A0E8B6E06FEF0C
:100850007FEF2D8120622D832581206425832581D2
:100860002068258315962C911597246015962C9356
:100870001597CB010197F1F7CB010197F1F7CB0168
:100880000197F1F7CB010197F1F72E8120622E83BA
:1008900026812064268326812068268316962C9143
:1008A0001697246016962C931697CB010197F1F7B3
:1008B000CB010197F1F7CB010197F1F7CB0101973C
:1008C000F1F74150510909F0C4CF84E08093EB2146
:1008D000DF91CF9108952F923F924F925F926F9246
:1008E0007F928F929F92AF92BF92CF92DF92EF92C0
:1008F000FF920F931F93CF93DF9300D000D0CDB71B
:10090000DEB783E48093E82106E021E048EE51E27F
:1009100069E68BE192E20E942D01EBE1F2E2878928
:100920008111FDCF0F2EFBE1EF2EF2E2FF2EF02D15
:10093000D7011B966C911B971C968C9170E0762FBB
:100940006627680F711D882777FD8095982F0E9474
:100950003E1A0CED11E2F801208131814281538170
:100960000E9412192B013C010F2EF4EC2F2EF1E204
:100970003F2EF02DD1016D937D938D939C93139712
:10098000F7016585868570E0762F6627680F711DF3
:10099000882777FD8095982F0E943E1AD8011496DB
:1009A0002D913D914D915C9117970E9412194B0129
:1009B0005C01F1016483758386839783D7011F9659
:1009C0006C911F9750968C9170E0762F6627680F78
:1009D000711D882777FD8095982F0E943E1AF80197
:1009E00020853185428553850E9412196B017C0157
:1009F000D10118966D937D938D939C931B9720E066
:100A000030E045E852E4C301B2010E94A3192B0172
:100A10003C010CEA11E2F8016083718382839383C5
:100A200020E030E045E852E4C501B4010E94A3197A
:100A30004B015C01D80114966D937D938D939C932B
:100A4000179720E030E043E852E4C701B6010E9466
:100A5000A31969837A838B839C83F80160877187EC
:100A600082879387C0900020D0900120E0900220E0
:100A7000F090032000EA11E2A7019601C301B20140
:100A80000E941E1B9B01AC01D8016D917D918D913F
:100A90009C910E941319F801608371838283938370
:100AA000A7019601C501B4010E941E1B9B01AC0168
:100AB000D80114966D917D918D919C9117970E940C
:100AC0001319F8016483758386839783A7019601C0
:100AD00069817A818B819C810E941E1B9B01AC01E4
:100AE000D80118966D917D918D919C911B970E94D4
:100AF0001319F80160877187828793872496CDBF89
:100B0000DEBFDF91CF911F910F91FF90EF90DF90AB
:100B1000CF90BF90AF909F908F907F906F905F909D
:100B20004F903F902F9008954F925F926F927F92D7
:100B30008F929F92AF92BF92CF92DF92EF92FF92ED
:100B40000F931F93CF93DF9300D000D0CDB7DEB7C4
:100B50008BE38093E82106E021E048EE51E269E66C
:100B60008BE192E20E942D01EBE1F2E28789811193
:100B7000FDCF0F2EFBE16F2EF2E27F2EF02DF30161
:100B80006385848570E0762F6627680F711D88273E
:100B900077FD8095982F0E943E1A0F2EF0EDAF2E14
:100BA000F1E2BF2EF02DF501208131814281538188
:100BB0000E9412196B017C0108EB11E2F8016083BD
:100BC000718382839383F3016585868570E0762F38
:100BD0006627680F711D882777FD8095982F0E94E2
:100BE0003E1AF50124813581468157810E941219F0
:100BF0004B015C01F8016483758386839783F3015D
:100C00006785808970E0762F6627680F711D8827B9
:100C100077FD8095982F0E943E1AF80160877187B2
:100C2000828793879B01AC010E941E1B2B013C0114
:100C3000A7019601C701B6010E941E1B69837A8332
:100C40008B839C8329813A814B815C81C301B201F2
:100C50000E9413190E94851B9B01AC01C501B401C0
:100C60000E94A3190E94771904E911E224E13EE2EF
:100C700045E652E40E941E1BF80160837183828363
:100C80009383A5019401C501B4010E941E1B9B0121
:100C9000AC01C301B2010E9413190E94851B9B0184
:100CA000AC01C701B60190580E94A3190E947719A0
:100CB00024E13EE245E652E40E941E1BF8016483F3
:100CC0007583868397832496CDBFDEBFDF91CF9156
:100CD0001F910F91FF90EF90DF90CF90BF90AF905A
:100CE0009F908F907F906F905F904F900895E4E079
:100CF000F2E221E9218392E8958382E381872283CE
:100D0000968382878AE583838CE3878313861086A4
:100D10001486158616861786108A089581E1E0E00C
:100D2000F0E1A4E0B2E201900D928A95E1F7E4E7E8
:100D3000F1E224E931E28CED95E0A0E0B0E08193AE
:100D40009193A193B193E217F307C9F784E794E075
:100D5000A0E0B0E08093802190938121A093822134
:100D6000B093832108954F925F926F927F928F92FA
:100D70009F92AF92BF92CF92DF92EF92FF921F931A
:100D8000CF93DF93CDB7DEB72897CDBFDEBF80917D
:100D90006621909167212CE3289FB001299F700D57
:100DA000112480E090E00E943C1A69837A838B834F
:100DB0009C83E6E4F1E280809180A280B38044804D
:100DC00055806680778024EF3DEF44EB5FE36085DC
:100DD0007185828593850E941E1B6D837E838F8320
:100DE0009887A3019201C501B4010E9412192D81B7
:100DF0003E814F8158850E9412199B01AC01698187
:100E00007A818B819C810E9413190E940B1A99236D
:100E10008CF06B017C0161361AEE7107810591053A
:100E200064F00F2EF0E6CF2EFAEEDF2EE12CF12C3F
:100E3000F02D03C0C12CD12C7601C0925621D09246
:100E40005721E0925821F0925921A3019201C50146
:100E5000B4010E9413199B01AC016D817E818F81C9
:100E600098850E9413199B01AC0169817A818B815D
:100E70009C810E9413190E940B1A99236CF0DC01CB
:100E8000CB0181362AEE9207A105B10544F080E638
:100E90009AEEA0E0B0E003C080E090E0DC01809337
:100EA0005A2190935B21A0935C21B0935D21A50111
:100EB0009401C301B2010E9412192D813E814F811C
:100EC00058850E9412199B01AC0169817A818B813E
:100ED0009C810E9413190E940B1A99236CF0DC016B
:100EE000CB018136EAEE9E07A105B10544F080E60C
:100EF0009AEEA0E0B0E003C080E090E0DC018093D7
:100F00005E2190935F21A0936021B0936121C50180
:100F1000B4019058A30192010E9412199B01AC01E7
:100F20006D817E818F8198850E9413199B01AC0190
:100F300069817A818B819C810E9413190E940B1A0E
:100F400099236CF0DC01CB018136FAEE9F07A105F5
:100F5000B10544F080E69AEEA0E0B0E003C080E086
:100F600090E0DC018093622190936321A09364213F
:100F7000B0936521B701A6010F2EF6E54F2EF1E2E1
:100F80005F2EF02D26E631E2D201CD90DD90ED907E
:100F9000FD904C155D056E057F0510F4B701A601A7
:100FA000A217B30791F70F2EF0E6CF2EFAEEDF2E41
:100FB000E12CF12CF02D46015701841A950AA60A5E
:100FC000B70A41361AEE5107610571056CF0F2015E
:100FD00080819181A281B381880D991DAA1DBB1DBD
:100FE00080839183A283B3833201F2018081918156
:100FF000A281B3818136FAEE9F07A105B10510F0F9
:10100000D701C601F30180839183A283B383F4E007
:101010004F0E511C42165306A1F62896CDBFDEBFD7
:10102000DF91CF911F91FF90EF90DF90CF90BF9015
:10103000AF909F908F907F906F905F904F900895AA
:10104000809115228823E1F0A6E5B1E28D919C9173
:101050001197E0E0F8E080A791A714968D919C91FC
:10106000159782A793A718968D919C91199784A79D
:1010700095A71C968D919C911D9786A797A708957B
:10108000E0E0F8E010A611A612A613A614A615A675
:1010900016A617A608959FB7F89420911A22222326
:1010A000A1F122E030E0B9016F5F7F4FF901EC5C04
:1010B000FD4DE081E695E695EF70E730F8F4D90153
:1010C000AC5CBD4D4C91DB01AC5CBD4DAC91F0E036
:1010D000EE0FFF1FEE0FFF1FE458FF4D437050E06F
:1010E00060E070E0762F652F542F44274A0F511D82
:1010F000611D711D40835183628373832E5F3F4F57
:101100002031310581F610921A229FBF78948730E2
:1011100088F4E82FF0E0E65EFF4DE081F0E0EE0FAE
:10112000FF1FEE0FFF1FE458FF4D80819181845215
:101130009C4F08958CED95E008952F923F924F9229
:101140005F926F927F928F929F92AF92BF92CF9257
:10115000DF92EF92FF920F931F93CF93DF9300D014
:1011600000D0CDB7DEB780917B208F5F80937B204E
:101170000F2EFBE38F2EF0E29F2EF02D0F2EFBE2C1
:10118000CF2EF0E2DF2EF02D0F2EF4E7EF2EF1E25E
:10119000FF2EF02D0F2EFCE6AF2EF1E2BF2EF02D2C
:1011A00021E02A8300E010E08370682E712C8B828E
:1011B0009C8210C00F5F1F4F8B819C8108968B8390
:1011C0009C8394E0E90EF11CEA81EF5FEA83F4E08E
:1011D000AF0EB11C0983802F0E944B08F801EE0F5F
:1011E000FF1FEE0FFF1FE60DF71DEE0FFF1FE55C63
:1011F000FF4D80839183EB81FC812081318182814D
:101200009381820F931F24813581820F931F268142
:101210003781820F931F02969C0112F42D5F3F4F7E
:10122000C9019595879595958795F6018193919339
:101230006F01AC01662757FD6095762F4701F701D6
:101240002080318042805380F3E02F1A310841081A
:101250005108421553056405750568F49C012E5F1D
:101260003F4F1901442437FC4094542CF70120824D
:10127000318242825382F401208031804280538047
:10128000F3E02F0E311C411C511C24163506460676
:10129000570650F40297AA2797FDA095BA2FF4019C
:1012A00080839183A283B383F981F23008F041C037
:1012B000F4012081318142815381A8EEB3E00E9484
:1012C000DB1B6056734E86419109613FFEE77F0745
:1012D000FAEF8F07FFEF9F0774F0603121E8720784
:1012E00025E08207910564F420ED32E040E050E013
:1012F0000E94081C09C02CE03EEF4FEF5FEF04C0D6
:1013000024EF31E040E050E0F50120833183428357
:101310005383F981F1110DC088279927DC01821BC5
:10132000930BA40BB50BF50180839183A283B38348
:1013300062C0F981F230A9F5F40120813181428146
:101340005381A8EEB3E00E94DB1B6056734E8641CA
:101350009109613FFEE77F07FAEF8F07FFEF9F07D5
:1013600074F0603121E8720725E08207910564F48A
:1013700020ED32E040E050E00E94081C09C02CE063
:101380003EEF4FEF5FEF04C024EF31E040E050E06C
:10139000209368213093692140936A2150936B21F7
:1013A0002AC08981833039F52091802130918121B3
:1013B0004091822150918321AEEDB3E00E94DB1B6E
:1013C00068577C418141910920ED32E040E050E0D6
:1013D0000E94E61B2A30310538F0293E93E0390798
:1013E00028F028EE33E002C02AE030E020936621A6
:1013F00030936721DFCEEA81E83008F4DBCE249613
:10140000CDBFDEBFDF91CF911F910F91FF90EF9085
:10141000DF90CF90BF90AF909F908F907F906F9014
:101420005F904F903F902F9008951F920F920FB6AC
:101430000F921124CF92DF92EF92FF920F931F939E
:101440002F933F934F935F936F937F938F939F93CC
:10145000AF93BF93EF93FF930E9422020091272046
:10146000109128202091292030912A206B017C01A5
:10147000C01AD10AE20AF30AC0922320D092242093
:10148000E0922520F0922620609327207093282058
:101490008093292090932A2089E8C81683E1D806F2
:1014A000E104F10440F0109222208091A009809381
:1014B000342280E00FC080912220E82FF0E090914C
:1014C000A009EC5CFD4D90838F3021F481E0809386
:1014D0001A2203C08F5F80932220FF91EF91BF916A
:1014E000AF919F918F917F916F915F914F913F91BC
:1014F0002F911F910F91FF90EF90DF90CF900F9061
:101500000FBE0F901F90189582E080935000E0E589
:10151000F0E0818181FFFDCF88ED84BF81E0809381
:1015200040000895E0E0FAE085E08083118282E0E7
:10153000868388E893E186A397A31092F621109200
:10154000F7211092F8211092F9210895E0E0F8E0D7
:101550008FEF9FEE86A397A382E0808383EF818342
:10156000E6E5F1E210821182128213821482158262
:1015700016821782108611861286138614861586A7
:10158000168617860895E0E4F6E080818160808306
:101590008081826080838081846080838081886094
:1015A0008083A0E0B6E08C9180628C93808180641F
:1015B0008083808180688083E0E8F6E080818460B9
:1015C000808381E0818382E08183E0E6F6E084E04D
:1015D000828388E0818380E8818380E48283089528
:1015E000E9EEF1E28BE6808380E8818322E0AF01BF
:1015F00069E68BE192E20E947101EBE1F2E28789F8
:101600008111FDCF8FEF9FEF0197F1F7E9EEF1E246
:101610008BE6808383E0818322E0AF0169E68BE182
:1016200092E20E947101EBE1F2E287898111FDCF24
:10163000E9EEF1E289E1808381E0818322E0AF017C
:1016400069E68BE192E20E947101EBE1F2E28789A7
:101650008111FDCFE9EEF1E28AE1808384E08183AC
:1016600022E0AF0169E68BE192E20E947101EBE1B9
:10167000F2E287898111FDCF0895E9EEF1E28BE175
:10168000808388E0818322E0AF0169E68BE192E20A
:101690000E947101EBE1F2E287898111FDCF08958B
:1016A000E9EEF1E28CE1808388E0818322E0AF0102
:1016B00069E68BE192E20E947101EBE1F2E2878937
:1016C0008111FDCF0895CF93DF93CFEFDFEFCE01F0
:1016D0000197F1F7CE010197F1F7CE010197F1F7EC
:1016E0000E94F00A0E943D0B0E94500BCE01019710
:1016F000F1F7CE010197F1F72197F1F783E080939D
:10170000EB21DF91CF910895E0EBF9E0178287E6B6
:1017100086838381816383838481886184838581D7
:1017200083608583E0EAF9E080E18683178290E3B5
:10173000938384838BE0858308950E94840A0E94AA
:10174000C30AE0ECF1E087858823ECF3E0ECF1E0FC
:101750008485886084870E94A60A0E94920AEBE131
:10176000F2E2A0EAB4E0A083B18388EF11968C93F3
:101770000190F081E02D83E2858381E084830E94E3
:10178000840BE0EAF0E082818760828378940E9493
:10179000630B0E948E060E94FD030E940E020895B4
:1017A0000F931F93CF93DF93C0E0D0E161E170E02E
:1017B000A4E0B2E280E090E0E0ECF1E005E318EDB7
:1017C0009C012F5F3F4F4D914993A9014F715527C0
:1017D000452B81F48FEF820F8083892F8F71818356
:1017E0001282028714BF81E0838787858823ECF308
:1017F00040E001C041E0C9012617370709F744233B
:1018000091F080E190E0E0ECF1E08083892F8F712E
:101810008183128285E3828788ED84BF81E083879C
:1018200087858823ECF30E948E06DF91CF911F916C
:101830000F910895CF93DF93CDB7DEB72697CDBF35
:10184000DEBFBE016F5F7F4F26E0FB0111922A953C
:10185000E9F74AE00E943C1C9981992389F020E035
:10186000E0EBF9E0818185FFFDCF90832F5FA1E060
:10187000B0E0AC0FBD1FA20FB11D9C919111F2CF32
:101880002696CDBFDEBFDF91CF910895AF92BF9274
:10189000CF92DF92EF92FF920F931F93CF93DF933C
:1018A000AFB6F894C62ED12C1C141D04B4F4B42E7B
:1018B000E82EF92E00E010E0C0EBD9E0898185FF29
:1018C000FDCFB882F701819191917F010E941A0C9E
:1018D0000F5F1F4F0C151D0589F7E0EBF9E08181C3
:1018E00085FFFDCF8AE08093B009AFBE7894DF9189
:1018F000CF911F910F91FF90EF90DF90CF90BF900D
:10190000AF9008950F931F93CF93DF93CDB7DEB7BA
:101910002897CDBFDEBF89839A836B837C834D83F9
:101920005E832F833887A80164E0CE0101960E9470
:10193000460C2896CDBFDEBFDF91CF911F910F914E
:101940000895CF93DF93CDB7DEB72697CDBFDEBF27
:1019500089839A836B837C834D835E83A90163E0D3
:10196000CE0101960E94460C2696CDBFDEBFDF91C8
:10197000CF910895CF93DF9300D000D0CDB7DEB7DD
:1019800089839A836B837C8362E0CE0101960E94F7
:10199000460C2496CDBFDEBFDF91CF9108952EE295
:1019A00030E00E94A10C08954CE250E00E94BA0C75
:1019B00008950F931F930AE310E00E94820C1F9179
:1019C0000F9108954BE350E061E00E94460C0895AA
:1019D0001F920F920FB60F9211242F933F934F93A4
:1019E0005F936F937F938F939F93AF93BF93CF93A7
:1019F000DF93EF93FF93DFB7F894E0EBF9E0818199
:101A00008823ECF7C091B00980911922882309F44A
:101A1000F7C080911822811109C0C093052281E08E
:101A20008093182280911820809317228091182289
:101A3000813069F48091182090911722981749F10C
:101A4000C093092292E090931822809317228091EC
:101A50001822823069F480911820909117229817EB
:101A600049F1C0930D2293E090931822809317229E
:101A700080911822833069F4809118209091172268
:101A8000981749F1C093062294E09093182280930E
:101A9000172280911822843069F480911820909147
:101AA0001722981749F1C0930A2295E090931822C3
:101AB0008093172280911822853069F48091182034
:101AC00090911722981749F1C0930E2296E09093B7
:101AD00018228093172280911822863069F4809111
:101AE000182090911722981749F1C093072297E088
:101AF000909318228093172280911822873069F4DE
:101B00008091182090911722981749F1C0930B22C9
:101B100098E09093182280931722809118228830A1
:101B200069F48091182090911722981749F1C09379
:101B30000F2299E090931822809317228091182207
:101B4000893069F48091182090911722981749F1F3
:101B5000C0930C229AE090931822809317228091D0
:101B600018228A3069F480911820909117229817D2
:101B700069F1C09310229BE0909318228093172262
:101B8000809118228B3069F480911820909117224F
:101B9000981791F1C093142293E1909318228093A7
:101BA000172280911822833189F480911820909116
:101BB0001722981709F12C2F30E02093112230932F
:101BC000122294E190931822809317228091182278
:101BD000843191F49091172280911820981761F028
:101BE0008C2F90E08093132290931422109218224D
:101BF000109219220E94D00B809119228111AAC043
:101C00008C2F90E0FC01E154F109E032F10508F07D
:101C1000A1C0E454FF4F0C94271C81E0809319204D
:101C200099C0109219201092162294C01092192077
:101C300081E0809316228EC01092192082E080935A
:101C4000162288C083E08093192084C082E08093AC
:101C5000192080C0E4E0F2E2418550E0658170E047
:101C6000818121E630E090E00E94A10C8AE02FEF14
:101C70003FEFF9013197F1F78150D9F78AE080936E
:101C8000EB21E4E0F2E2428550E0668170E082817F
:101C900022E630E090E00E94A10C8AE02FEF3FEFB7
:101CA000F9013197F1F78150D9F78AE08093EB2160
:101CB000E4E0F2E2438550E0678170E0838123E64F
:101CC00030E090E00E94A10C8AE02FEF3FEFF90195
:101CD0003197F1F78150D9F78AE08093EB21E4E066
:101CE000F2E2408950E0648570E0808524E630E0CF
:101CF00090E00E94A10C8AE02FEF3FEFF9013197AD
:101D0000F1F78150D9F78AE08093EB21E4E0F2E229
:101D10006785708947E650E0858596850E94BA0CF4
:101D20008AE02FEF3FEFF9013197F1F78150D9F7B2
:101D30008AE08093EB210EC0FFCF81E080931922CF
:101D400009C01092192206C081E08093152202C0BA
:101D500010921522809118208F5F80931820DFBF8A
:101D60007894FF91EF91DF91CF91BF91AF919F91C7
:101D70008F917F916F915F914F913F912F910F9034
:101D80000FBE0F901F9018954F925F926F927F92A7
:101D9000AF92BF92CF92DF92EF92FF920F931F9379
:101DA000CF93DF93C0900020D0900120E0900220DC
:101DB000F0900320CAEDD0E20F2EFCEAAF2EF1E244
:101DC000BF2EF02DF5012081318142815381C70161
:101DD000B6010E941E1B288139814A815B810E94C5
:101DE00013192EEA38ED4FE75FE30E941E1B2B010B
:101DF0003C0104E911E220E038E44DE15AE3F80146
:101E000060817181828193810E941E1B9B01AC01C4
:101E1000C301B2010E941319688379838A839B836B
:101E2000F5012481358146815781C701B6010E94A1
:101E30001E1B2C813D814E815F810E9413192EEA69
:101E400038ED4FE75FE30E941E1B6B017C0120E031
:101E500038E44DE15AE3F801648175818681978108
:101E60000E941E1B9B01AC01C701B6010E94131901
:101E70006C837D838E839F83DF91CF911F910F9120
:101E8000FF90EF90DF90CF90BF90AF907F906F90DA
:101E90005F904F9008952F923F924F925F926F9272
:101EA0007F928F929F92AF92BF92CF92DF92EF92EA
:101EB000FF920F931F93CF93DF93CDB7DEB7609759
:101EC000CDBFDEBFAAEDB0E28D919D910D90BC918A
:101ED000A02D89879A87AB87BC870F2EF4E9AF2E98
:101EE000F1E2BF2EF02D9C01AD01F5016081718101
:101EF000828193810E9412196B017C012DEC3CECD4
:101F00004CEC5DE30E941E1B2DEC3CEC4CEC5DE3C5
:101F10000E941E1B2B013C010EEC10E2D8016D93B8
:101F20007D938D939C9313978091DE209091DF2079
:101F3000A091E020B091E1208D879E87AF87B88B7C
:101F40009C01AD01D50114966D917D918D919C916F
:101F500017970E9412196D837E838F8398872DECCB
:101F60003CEC4CEC5DE30E941E1B2DEC3CEC4CEC7D
:101F70005DE30E941E1B4B015C010F2EF2EC2F2E25
:101F8000F0E23F2EF02DF101608371838283938311
:101F90008091002090910120A0910220B091032017
:101FA00089839A83AB83BC839C01AD01C301B201D9
:101FB0000E941E1BD80118962D913D914D915C9168
:101FC0001B970E9413192B013C01F8016087718750
:101FD0008287938729813A814B815C81C501B40155
:101FE0000E941E1BD10118962D913D914D915C913F
:101FF0001B970E9413194B015C01F10160877187E7
:1020000082879387A7019601C701B6010E94131921
:102010002DEC3CEC4CEC5DE30E941E1B9B01AC01E3
:10202000C301B2010E9413190F2EFCEA6F2EF1E2D8
:102030007F2EF02DD3012D913D914D915C910E9409
:1020400013196B017C01F801648375838683978380
:102050002D813E814F815885CA01B9010E94131913
:102060002DEC3CEC4CEC5DE30E941E1B9B01AC0193
:10207000C501B4010E941319D30114962D913D910D
:102080004D915C9117970E9413194B015C01F1016E
:102090006483758386839783A701960169817A811A
:1020A0008B819C810E941E1B9B01AC0169857A85F6
:1020B0008B859C850E941319AAEDB0E26D937D93E8
:1020C0008D939C931397A501940169817A818B81EB
:1020D0009C810E941E1B9B01AC016D857E858F85B6
:1020E00098890E9413196093DE207093DF208093FB
:1020F000E0209093E1206096CDBFDEBFDF91CF91CD
:102100001F910F91FF90EF90DF90CF90BF90AF9015
:102110009F908F907F906F905F904F903F902F9007
:1021200008952F923F924F925F926F927F928F927B
:102130009F92AF92BF92CF92DF92EF92FF920F9356
:102140001F93CF93DF93CDB7DEB7A897CDBFDEBF88
:102150000AEB10E2D801CD90DD90ED90FC9040901C
:102160000020509001206090022070900320A70171
:102170009601ECEAF1E260817181828193810E9493
:102180001219A30192010E941E1BAAEDB0E22D912B
:102190003D914D915C910E941319698B7A8B8B8BC9
:1021A0009C8BD301C201B0588D839E83AF83B887C7
:1021B000A2EAB0E28D909D90AD90BC90AAEAB0E208
:1021C0008D919D910D90BC91A02D89839A83AB83B5
:1021D000BC832FE632E143E85AE3C301B2010E9417
:1021E0001E1B6D8B7E8B8F8B988F29813A814B8143
:1021F0005C81C501B4010E9413199B01AC016D8182
:102200007E818F8198850E941E1B2D893E894F8972
:10221000588D0E941319E2EBF0E220813181428156
:1022200053810E94131969877A878B879C870F2EA9
:10223000FAE92F2EF0E23F2EF02DD1018D919D91E4
:102240000D90BC91A02D8D879E87AF87B88B9C0188
:10225000AD016D817E818F8198850E941E1B698FE3
:102260007A8F8B8F9C8F9B01AC0169817A818B81E6
:102270009C810E9413196D8F7E8F8F8F98A3298D5B
:102280003A8D4B8D5C8DC501B4010E941319698F85
:102290007A8F8B8F9C8F26EA3BE944E45BE3C30192
:1022A000B2010E941E1B69A37AA38BA39CA3298958
:1022B0003A894B895C89E4E9F1E26081718182812C
:1022C00093810E9412196DA37EA38FA398A72AE978
:1022D00039E949E95EE369857A858B859C850E94A9
:1022E000131969837A838B839C839B01AC01698575
:1022F0007A858B859C850E94A3194B015C012981FD
:102300003A814B815C81698D7A8D8B8D9C8D0E9489
:10231000A31969837A838B839C832DA13EA14FA14E
:1023200058A5C501B4010E941E1B9B01AC0169891F
:102330007A898B899C890E941319AAEDB0E26D936A
:102340007D938D939C9313972DA13EA14FA158A5EA
:1023500069817A818B819C810E941E1B9B01AC014B
:10236000C701B6010E941319F8016083718382834B
:102370009383A501940169857A858B859C850E944C
:102380001E1B9B01AC0169857A858B859C850E940B
:1023900012196B017C01A2EBB0E26D937D938D93DA
:1023A0009C931397A50194016D8D7E8D8F8D98A1BF
:1023B0000E941E1B9B01AC016D8D7E8D8F8D98A19F
:1023C0000E9412194B015C01EAEAF0E2608371831A
:1023D00082839383A701960169817A818B819C8195
:1023E0000E941E1B9B01AC01698D7A8D8B8D9C8D8B
:1023F0000E941219A2EAB0E26D937D938D939C9393
:10240000139729A13AA14BA15CA16D857E858F858B
:1024100098890E9413196B017C01A50194016981BF
:102420007A818B819C810E941E1B9B01AC01C7019C
:10243000B6010E941219F101608371838283938334
:10244000D8011496CD90DD90ED90FC901797A701E0
:1024500096016091B0217091B1218091B22190914B
:10246000B3210E9412199B01AC01C301B2010E9469
:102470001E1B2091DE203091DF204091E020509102
:10248000E1200E9413196D877E878F87988B80903B
:10249000A6209090A720A090A820B090A9204090BE
:1024A000AE205090AF206090B0207090B120A3017A
:1024B0009201C501B4010E9413199B01AC016D8109
:1024C0007E818F8198850E941E1B9B01AC016D89C6
:1024D0007E898F89988D0E9413192091B6203091A2
:1024E000B7204091B8205091B9200E9413196987F4
:1024F0007A878B879C87D10114968D919D910D9041
:10250000BC91A02D89839A83AB83BC839C01AD01D0
:102510006D817E818F8198850E941E1B6D837E83D5
:102520008F8398879B01AC01C301B2010E941319EC
:10253000698B7A8B8B8B9C8B2D813E814F8158854B
:10254000C501B4010E9413196D8B7E8B8F8B988F00
:102550002D853E854F8558896091982170919921EC
:1025600080919A2190919B210E9412192B013C018C
:102570002AE939E949E95EE369857A858B859C8595
:102580000E9413194B015C019B01AC0169857A859E
:102590008B859C850E94A3196D837E838F8398878A
:1025A000A50194016D897E898F89988D0E94A31958
:1025B0004B015C01A30192016D817E818F81988521
:1025C0000E941E1B9B01AC016D857E858F859889BD
:1025D0000E9413196093DE207093DF208093E02027
:1025E0009093E120A3019201C501B4010E941E1B3A
:1025F0009B01AC01C701B6010E941319F801648365
:102600007583868397832D813E814F8158856985A7
:102610007A858B859C850E941E1B9B01AC01698578
:102620007A858B859C850E9412192B013C01609351
:10263000B6207093B7208093B8209093B9202D8155
:102640003E814F81588569897A898B899C890E944E
:102650001E1B9B01AC0169897A898B899C890E9428
:1026600012196B017C016093AE207093AF208093B0
:10267000B0209093B120A3019201C501B4010E9442
:102680001E1B9B01AC016D897E898F89988D0E94EC
:1026900012196093A6207093A7208093A82090938E
:1026A000A92029813A814B815C8169A17AA18BA102
:1026B0009CA10E9413192B013C01A7019601C501A1
:1026C000B4010E941E1B9B01AC01C301B2010E9418
:1026D0001219D10114966D937D938D939C93179746
:1026E000A896CDBFDEBFDF91CF911F910F91FF90D4
:1026F000EF90DF90CF90BF90AF909F908F907F90A2
:102700006F905F904F903F902F9008952F923F923F
:102710004F925F926F927F928F929F92AF92BF92F1
:10272000CF92DF92EF92FF920F931F93CF93DF939D
:10273000CDB7DEB76497CDBFDEBFE6E3F1E2A6E238
:10274000B1E24D915D916D917C91139740835183DE
:102750006283738314964D915D916D917C9117976F
:10276000448355836683778318968D919D910D9050
:10277000BC91A02D80879187A287B387809100208C
:1027800090910120A0910220B09103208F87988B17
:10279000A98BBA8B0F2EFCE6CF2EF1E2DF2EF02DA7
:1027A000AAEDB0E2A983BA83E1E1F2E2EB83FC8314
:1027B00086E291E28D839E83A5E0B2E2AF83B88783
:1027C000E6E1F1E2E987FA870F2EF6EE6F2EF0E2EE
:1027D0007F2EF02D89E092E28B879C870F2EF6EFFB
:1027E000EF2EF0E2FF2EF02D0F2EFCEA8F2EF1E2FD
:1027F0009F2EF02DADE0B2E2AD87BE870F2EF6E042
:102800002F2EF1E23F2EF02D02E010E056016B8AF0
:102810007C8A6701F50161917191819191915F01CC
:10282000A981BA814D905D906D907D90A983BA8306
:10283000EB81FC81E190F190EB83FC830E943E1AD6
:1028400020E030E040E251E40E94A319A30192018C
:102850000E9412192B013C01B701882777FD809552
:10286000982F0E943E1A9B01AC01C301B2010E9445
:1028700013192B013C01AD81BE816D937D938D9326
:102880009D93AD83BE83EF81F8856191EF83F887D7
:1028900070E080E090E00E943E1A9B01AC01C30111
:1028A000B2010E941E1BA985BA856D937D938D93FD
:1028B0009D93A987BA87EB88FC882F853889498939
:1028C0005A89C301B2010E941E1BF7012081318188
:1028D000428153810E9413192B013C0120E030E01A
:1028E00048E452EC0E949F1988235CF020E030E01D
:1028F00048E452E4C301B2010E94131B181654F0BD
:1029000011C00F2E412C512CF8E46F2EF2EC7F2ECB
:10291000F02D08C00F2E412C512CF8E46F2EF2E45C
:102920007F2EF02DD7014D925D926D927C92139780
:10293000EB85FC856191EB87FC8770E080E090E09F
:102940000E943E1A9B01AC01C301B2010E941E1BF2
:10295000D6016D937D938D939D936D01F40141900C
:102960005190619071904F01AD85BE856D91AD879D
:10297000BE8770E080E090E00E943E1A9B01AC01AF
:10298000C301B2010E941E1BF101619371938193F7
:1029900091931F01015011098B899C8904968B8B9F
:1029A0009C8B0115110509F035CF4090B421509052
:1029B000B5216090B6217090B72160916821709127
:1029C000692180916A2190916B210E943E1AA30196
:1029D00092010E9412196B017C0160932E21709369
:1029E0002F2180933021909331216091072270E054
:1029F00080E090E00E943E1A9B01AC01C701B60145
:102A00000E941E1B4B015C0160931E2170931F21CD
:102A1000809320219093212120910020309101204A
:102A20004091022050910320C701B6010E941E1B55
:102A30002091EE203091EF204091F0205091F12034
:102A40000E9413196B017C0120E030E048EC52EC4D
:102A50000E949F1988235CF020E030E048EC52E4AB
:102A6000C701B6010E94131B181654F011C00F2E97
:102A7000C12CD12CF8ECEF2EF2ECFF2EF02D08C07B
:102A80000F2EC12CD12CF8ECEF2EF2E4FF2EF02DFE
:102A9000C092EE20D092EF20E092F020F092F12050
:102AA0000F2EF4E02F2EF2E23F2EF02DD1011796DB
:102AB0006C9170E080E090E00E943E1A9B01AC01B6
:102AC000C701B6010E941E1B6B017C0106EF10E2DC
:102AD000F8016087718782879387D1011B966C917B
:102AE00070E080E090E00E943E1A9B01AC01C301BF
:102AF000B2010E941E1B2B013C0160930E217093BA
:102B00000F2180931021909311210F2EF6E42F2E88
:102B1000F1E23F2EF02DE6E0F1E2208131814281A9
:102B20005381A6E1B1E26D917D918D919C910E94BE
:102B30001219F80120813181428153810E941319B9
:102B4000D1016D937D938D939C93139720910A21CE
:102B500030910B2140910C2150910D2160911A214F
:102B600070911B2180911C2190911D210E941219AE
:102B7000F80124813581468157810E941319D101C2
:102B800014966D937D938D939C931797A301920157
:102B9000C501B4010E9412199B01AC01C701B60125
:102BA0000E941319F1016087718782879387649669
:102BB000CDBFDEBFDF91CF911F910F91FF90EF90BE
:102BC000DF90CF90BF90AF909F908F907F906F904D
:102BD0005F904F903F902F900895009709F041C06B
:102BE0008091982090919920843F21E0920721F0D4
:102BF0008C3B22E0920791F4E0E0F6E02581206230
:102C00002583E0E4F6E02581206425832581206882
:102C10002583E0E8F6E0258124602583883522E0DD
:102C2000920721F0843823E0920791F4E0E0F6E087
:102C3000268120622683E0E4F6E026812064268354
:102C4000268120682683E0E8F6E02681246026833A
:102C5000893E934008F44BC010929820109299201E
:102C600046C0019709F043C0809198209091992027
:102C70008D37910559F4E0E0F6E026812062268345
:102C8000E0E4F6E02581206425831BC08A3F91059E
:102C900049F4E0E4F6E0268120642683258120685B
:102CA00025831EC0873721E0920759F4E0E4F6E05F
:102CB000868180688683E0E8F6E08581846085838C
:102CC00016C0843F21E0920759F4E0E8F6E08681DF
:102CD00084608683E0E0F6E085818062858307C0BA
:102CE000853F914020F01092982010929920809179
:102CF0009820909199200196809398209093992004
:102D00000895CF93DF93CDB7DEB72897CDBFDEBF51
:102D10000E949D0BC12CD12C7601412C512C3201EB
:102D20000F2E212CF6E03F2EF02D460157010E9478
:102D300022026B017C016093F2217093F321809356
:102D4000F4219093F521EEEEF1E2808191818601EC
:102D5000081B190B0093EC211093ED21C092EE217A
:102D6000D092EF21E092F021F092F1214091FC21EC
:102D70005091FD216091FE217091FF21CB01BA019C
:102D8000600F711F811D911D6093FC217093FD21C7
:102D90008093FE219093FF212091FA213091FB2115
:102DA0002F5F3F4F2093FA213093FB2125363105C9
:102DB000D4F024E630E040E050E00E94E61B20938F
:102DC000002230930122409302225093032210925A
:102DD000FA211092FB211092FC211092FD211092F9
:102DE000FE211092FF21B80180E090E00E943C1A81
:102DF00020E034E244E759E40E94A31960930020E4
:102E00007093012080930220909303200E946B0412
:102E10000E9494050E9491100E9486138C149D04B8
:102E2000AE04BF0408F0D9C080E18093A409460134
:102E30005701F0E28F0EFEE49F1EA11CB11C0E9400
:102E40009D088091662190916721449708F0C5C044
:102E5000ECE6F1E280819181A281B3818E33FEEFB5
:102E60009F07FFEFAF07BF07BCF54091702150915E
:102E7000712160917221709173214E335E4F6F4FBB
:102E80007F4F0CF0AAC04091682150916921609158
:102E90006A2170916B214E335E4F6F4F7F4F0CF064
:102EA000BAC1E0E0F6E0858180628583E0E4F6E087
:102EB000858180648583858180688583E0E8F6E08C
:102EC00085818460858388E02FEF3FEFF90131979A
:102ED000F1F78150D9F7FFCF833C9140A105B105AF
:102EE0000CF47BC08091702190917121A09172218E
:102EF000B09173218E339E4FAF4FBF4F0CF06DC01A
:102F00008091682190916921A0916A21B0916B21F3
:102F10008E339E4FAF4FBF4F0CF05FC08091152294
:102F2000882309F46FC1E0E0F8E010A611A612A60C
:102F300013A614A615A616A617A6109215222FE002
:102F400030E0F1018581806285838091450680644F
:102F50008093450680914506806880934506809160
:102F600085068460809385068FEF9FEF0197F1F7C8
:102F70008FEF9FEF0197F1F78FEF9FEF0197F1F739
:102F80008FEF9FEF0197F1F78681806286838091B2
:102F9000460680648093460680914606806880934A
:102FA0004606809186068460809386068FEF9FEFA9
:102FB0000197F1F78FEF9FEF0197F1F78FEF9FEFF9
:102FC0000197F1F78FEF9FEF0197F1F7215031094A
:102FD00009F0B7CF84E08093EB214C145D046E04BC
:102FE0007F0408F0FEC026013701F0E24F0EFEE438
:102FF0005F1E611C711C80911920813031F008F432
:1030000069C0833009F4E9C0ECC00AED10E220E0A9
:1030100030E040E251E4F801648175818681978156
:103020000E941E1B0E940B1A6B017C0120E030E005
:1030300040E251E4F80160817181828193810E94B4
:103040001E1B0E940B1ADC01CB01B6010E94D40C9E
:1030500006E511E2F801648575858685978528EE79
:1030600033E040E050E00E94E61B29833A834B8323
:103070005C83F801608571858285938528EE33E055
:1030800040E050E00E94E61B2D833E834F8358872B
:10309000F801648175818681978128EE33E040E0F4
:1030A00050E00E94E61B69017A01F801608171819C
:1030B0008281938128EE33E040E050E00E94E61BDD
:1030C000DA01C90129813A814D815E81B6010E94F0
:1030D000D90C87C00091162210E0000F111F000FBD
:1030E000111FF801EA5FFE4D20E030E048EC52E4A9
:1030F00060817181828193810E94A3190E940B1AC1
:1031000069837A838B839C83F801EA50FF4D20E02A
:1031100030E048EC52E460817181828193810E94A9
:10312000A3190E940B1A6B017C01F801EA5EFE4DA7
:1031300020E030E048EC52E460817181828193812B
:103140000E94A3190E940B1ADC01CB0149815A810C
:10315000B6010E94CF0C06E511E2F8016485758581
:103160008685978528EE33E040E050E00E94E61B1C
:1031700029833A834B835C83F8016085718582855E
:10318000938528EE33E040E050E00E94E61B2D835B
:103190003E834F835887F8016481758186819781CA
:1031A00028EE33E040E050E00E94E61B69017A011E
:1031B000F801608171818281938128EE33E040E0E3
:1031C00050E00E94E61BDA01C90129813A814D8154
:1031D0005E81B6010E94D90C04C084E090E20E9496
:1031E000E20C8091662190916721883C910570F4F2
:1031F00081E090E00E94ED150E94B3060E94200835
:10320000A89595CD81E08093152299CE80E090E03D
:103210000E94ED15F1CF833C9140A105B1050CF062
:103220006FCEDBCE5058BB27AA270ED0C2C1B3D178
:1032300030F0B8D120F031F49F3F11F41EF483C177
:103240000EF4E095E7FB79C1E92FC4D180F3BA17FA
:10325000620773078407950718F071F49EF5DCC1C7
:103260000EF4E0950B2EBA2FA02D0B01B9019001A1
:103270000C01CA01A0011124FF27591B99F0593FE5
:1032800050F4503E68F11A16F040A22F232F342F2D
:103290004427585FF3CF469537952795A795F0407B
:1032A0005395C9F77EF41F16BA0B620B730B840B90
:1032B000BAF09150A1F0FF0FBB1F661F771F881F48
:1032C000C2F70EC0BA0F621F731F841F48F48795A0
:1032D00077956795B795F7959E3F08F0B3CF93958F
:1032E000880F08F09927EE0F979587950895DF933B
:1032F000DD27B92FBF7740E85FE3161617064807AA
:103300005B0710F4D92F93D19F938F937F936F9383
:103310003AD2E8EBF1E01AD14CD12F913F914F9185
:103320005F9198D1DD2349F09058A2EA2AED3FE061
:1033300049EC5FE3D0785D2787DFDF913AC1D9D0D0
:1033400008F481E008950CD034C12CD140F023D191
:1033500030F021F45F3F19F0F0C051115EC1F3C0AD
:1033600039D198F39923C9F35523B1F3951B550B24
:10337000BB27AA2762177307840738F09F5F5F4F48
:10338000220F331F441FAA1FA9F333D00E2E3AF089
:10339000E0E830D091505040E695001CCAF729D0A3
:1033A000FE2F27D0660F771F881FBB1F26173707F2
:1033B0004807AB07B0E809F0BB0B802DBF01FF2722
:1033C00093585F4F2AF09E3F510568F0B6C025C163
:1033D0005F3FECF3983EDCF3869577956795B7955C
:1033E000F7959F5FC9F7880F911D9695879597F977
:1033F0000895E1E0660F771F881FBB1F62177307F0
:103400008407BA0720F0621B730B840BBA0BEE1F04
:1034100088F7E095089504D06894B111FEC008952E
:10342000E1D088F09F5790F0B92F9927B751A0F0BD
:10343000D1F0660F771F881F991F1AF0BA95C9F748
:1034400012C0B13081F0E8D0B1E00895E5C0672F37
:10345000782F8827B85F39F0B93FCCF386957795F8
:103460006795B395D9F73EF49095809570956195E1
:103470007F4F8F4F9F4F0895E89409C097FB3EF40C
:1034800090958095709561957F4F8F4F9F4F9923B1
:10349000A9F0F92F96E9BB279395F695879577952F
:1034A0006795B795F111F8CFFAF4BB0F11F460FFEF
:1034B0001BC06F5F7F4F8F4F9F4F16C0882311F047
:1034C00096E911C0772321F09EE8872F762F05C05B
:1034D000662371F096E8862F70E060E02AF09A95F6
:1034E000660F771F881FDAF7880F9695879597F9EB
:1034F0000895990F0008550FAA0BE0E8FEEF161685
:103500001706E807F907C0F012161306E407F507D7
:1035100098F0621B730B840B950B39F40A2661F04B
:10352000232B242B252B21F408950A2609F4A140EE
:10353000A6958FEF811D811D089597F99F6780E8FB
:1035400070E060E008959FEF80EC0895DF93CF93E3
:103550001F930F93FF92EF92DF927B018C0168948F
:1035600005C0DA2EEF0176D0FE01E894A5912591F1
:10357000359145915591AEF3EF0166DEFE0197015D
:10358000A801DA9479F7DF90EF90FF900F911F91E7
:10359000CF91DF91089500240A9416161706180695
:1035A0000906089500240A94121613061406050647
:1035B0000895092E0394000C11F4882352F0BB0FD8
:1035C00040F4BF2B11F460FF04C06F5F7F4F8F4F3B
:1035D0009F4F089557FD9058440F551F59F05F3F76
:1035E00071F04795880F97FB991F61F09F3F79F025
:1035F00087950895121613061406551FF2CF4695A7
:10360000F1DF08C0161617061806991FF1CF869528
:103610007105610508940895E894BB27662777270C
:10362000CB0197F9089565DF08F48FEF08959B01AA
:10363000AC0160E070E080E89FE385CE0BD0B9CFAD
:10364000AADF28F0AFDF18F0952309F076CF7BCF03
:103650001124E3CFBFDFA0F3959FD1F3950F50E086
:10366000551F629FF001729FBB27F00DB11D639F34
:10367000AA27F00DB11DAA1F649F6627B00DA11DDA
:10368000661F829F2227B00DA11D621F739FB00D80
:10369000A11D621F839FA00D611D221F749F3327F0
:1036A000A00D611D231F849F600D211D822F762F89
:1036B0006A2F11249F5750408AF0E1F088234AF086
:1036C000EE0FFF1FBB1F661F771F881F91505040D2
:1036D000A9F79E3F510570F030CF9FCF5F3FECF3CD
:1036E000983EDCF3869577956795B795F795E795BE
:1036F0009F5FC1F7FE2B880F911D9695879597F9CF
:10370000089511F40EF41FCF41C06CDFD0F399235C
:10371000D9F3CEF39F57550B87FF46D00024A0E680
:1037200040EA900180585695979528F4805C660F82
:10373000771F881F20F026173707480730F4621BD1
:10374000730B840B202931294A2BA69517940794D3
:10375000202531254A2758F7660F771F881F20F04C
:1037600026173707480730F4620B730B840B200DC4
:10377000311D411DA09581F7B901842F9158880F03
:103780009695879508959B01AC0158CF9F3F31F0E6
:10379000915020F4879577956795B795880F911D7F
:1037A0009695879597F9089591505040660F771F29
:1037B000881FD2F708950E942D1CA59F900DB49FDD
:1037C000900DA49F800D911D11240895A1E21A2E41
:1037D000AA1BBB1BFD010DC0AA1FBB1FEE1FFF1FB5
:1037E000A217B307E407F50720F0A21BB30BE40B05
:1037F000F50B661F771F881F991F1A9469F760954C
:103800007095809590959B01AC01BD01CF01089505
:10381000052E97FB1EF400940E941F1C57FD07D035
:103820000E94E61B07FC03D04EF40C941F1C50951D
:103830004095309521953F4F4F4F5F4F089590959C
:103840008095709561957F4F8F4F9F4F0895EE0F34
:10385000FF1F0590F491E02D0994A29FB001B39F42
:10386000C001A39F700D811D1124911DB29F700D89
:10387000811D1124911D0895BB274A3031F49923ED
:1038800022F4BDE2909581959F4F0C94481CBB2774
:10389000FB015527AA27880F991FAA1FA41710F00C
:1038A000A41B83955051B9F7A05DAA3308F0A95D18
:1038B000A193009779F7B111B1931192CB010C94B8
:1038C000611CDC01FC01672F71917723E1F73297CE
:1038D00004C07C916D9370836291AE17BF07C8F3EB
:0638E0000895F894FFCFEB
:1038E6000AD7A33A00000A001400000000000000F6
:1038F60000000000000000000102010203000405B0
:023906000600B9
:00000001FF
