:100000000C94F3000C9410010C9410010C9410014A
:100010000C9410010C9410010C9410010C9410011C
:100020000C9410010C9410010C9410010C9410010C
:100030000C9410010C9410010C9410010C941001FC
:100040000C9410010C9410010C9410010C941001EC
:100050000C9410010C9410010C9410010C941001DC
:100060000C9410010C9410010C9410010C941001CC
:100070000C9410010C9410010C9410010C941001BC
:100080000C9410010C9410010C9410010C941001AC
:100090000C9410010C9410010C9410010C9410019C
:1000A0000C9410010C9410010C9410010C9410018C
:1000B0000C9410010C9410010C9469020C944402ED
:1000C0000C9410010C9410010C9410010C9410016C
:1000D0000C9410010C9410010C9410010C9410015C
:1000E0000C9410010C9410010C9410010C9410014C
:1000F0000C9410010C9410010C9410010C9410013C
:100100000C9410010C9410010C9410010C9410012B
:100110000C9410010C9410010C9410010C9410011B
:100120000C9410010C9410010C9410010C9410010B
:100130000C9410010C9410010C9410010C941001FB
:100140000C9410010C9410010C9410010C941001EB
:100150000C9410010C9410010C9410010C941001DB
:100160000C94150A0C9410010C9410010C94420D7F
:100170000C9410010C941001670E7C0E800E840EFE
:10018000FB0E040F040F040F040F040F040F040FE1
:10019000FE0E020F040F040F040FF60EF70E040FED
:1001A000040F040F040F6B0E700E040F040F040FE6
:1001B000040F040F040F760E084AD73B3BCE016EA6
:1001C00084BCBFFDC12F3D6C74319ABD56833DDAAE
:1001D0003D00C77F11BED9E4BB4C3E916BAAAABEBD
:1001E000000000803F0011241FBECFEFCDBFDFE233
:1001F000DEBF10E2A0E0B0E2E2E3FBE302C0059064
:100200000D92AE30B107D9F712E2AEE0B0E201C014
:100210001D92A835B107E1F70E94A6170C94971D0F
:100220000C940000FC01608371834863DB0111962C
:100230004C93A081B18115962C930190F081E02D13
:1002400081E084830895DC01ED91FC9184818370C9
:100250000895FC01878980E008950F93CF93DF9381
:10026000FC01293098F5093098F58789811132C051
:1002700081E0878B108E660F6283222369F0A42FA2
:10028000B52F40E050E08D91EF01C40FD51F8B8357
:100290004F5F5F4F4217B8F3238B048B158A168A82
:1002A0008389882341F082818E7F0190F081E02D47
:1002B000868381E012C08489882371F08281816005
:1002C0000190F081E02D868381E007C080E005C0C9
:1002D00080E003C080E001C081E0DF91CF910F9109
:1002E00008950F9300E00E942D010F9108950F9340
:1002F000042F20E040E050E00E942D010F9108956E
:10030000FC01A081B18114969C91149792FF03C0C7
:1003100084E0808F02C083E0808F986014969C9365
:10032000178A0895CF93DF93FC0193892489A081D4
:10033000B18114968C91149784FF07C083E01396C3
:100340008C9385E0808F178A1CC08589891758F4A3
:100350008589EF01C80FD11D8B8117968C938589F4
:100360008F5F858B0EC08689821728F48281816019
:1003700016968C9306C083E013968C9381E0808F51
:10038000178ADF91CF910895FC018689883070F437
:10039000A081B18117968C919689DF01A90FB11DBB
:1003A0001B968C9386898F5F868B08C0A081B18154
:1003B00083E013968C9382E0808F178A94898689D4
:1003C000891730F40190F081E02D82E08383089555
:1003D000A081B18187E013968C9381E0808F178A8A
:1003E0000895DC01ED91FC912481322F3C7019F0CD
:1003F0000E948001089526FF03C00E949201089583
:1004000022231CF40E94C401089526E0FC01208FE1
:10041000178A0895FC01608F178A089588ED84BFBC
:1004200083E280938000E0E8F0E0828180FDFDCFF0
:100430000895E0E8F0E080818C7F816098ED94BFC2
:1004400080830895E091200AF091210AEE0FFF1FAA
:100450002091E2213091E3214091E4215091E52166
:10046000A0E1B7E20E94011D6E0F7F1F811D911D4B
:1004700008950E94220228EE33E040E050E00E94FE
:100480000C1DCA01B90108951F920F920FB60F9269
:1004900011248F939F93AF93BF938091E22190910A
:1004A000E321A091E421B091E5210196A11DB11DA8
:1004B0008093E2219093E321A093E421B093E5217E
:1004C000BF91AF919F918F910F900FBE0F901F9092
:1004D00018951F920F920FB60F9211242F933F93EE
:1004E0004F935F936F937F938F939F93AF93BF933C
:1004F000EF93FF938FE292E20E94F101FF91EF915F
:10050000BF91AF919F918F917F916F915F914F912B
:100510003F912F910F900FBE0F901F9018952F9223
:100520003F924F925F926F927F928F929F92AF9283
:10053000BF92CF92DF92EF92FF920F931F93CF93D0
:10054000DF93E0E4F6E08581806485830F2EF0E19F
:100550002F2EF7E23F2EF02D412C512C3201812C11
:10056000912C5401C12CD12C760113E4CFE2D2E2BC
:100570001093D42106E021E044ED51E269E6CE017A
:100580000E942D018F898111FDCF8B852C8590E0F4
:10059000982F8827820F911DAA2797FDA095BA2F23
:1005A000480E591E6A1E7B1E8D852E8590E0982F61
:1005B0008827820F911DAA2797FDA095BA2F880E34
:1005C000991EAA1EBB1E8F85288990E0982F882728
:1005D000820F911DAA2797FDA095BA2FC80ED91E8C
:1005E000EA1EFB1E88EC90E00197F1F7A89581E0E8
:1005F000281A310809F0BCCFE0E4F6E08681806477
:100600008683C8ECD1E2C301B20120E137E240E0C9
:1006100050E00E942E1DCA01B9010E94641B68832C
:1006200079838A839B83C501B40120E137E240E0EE
:1006300050E00E942E1DCA01B9010E94641B6C8308
:100640007D838E839F83C701B60120E137E240E0BE
:1006500050E00E942E1DCA01B9010E94641B6887E8
:1006600079878A879B87DF91CF911F910F91FF90A8
:10067000EF90DF90CF90BF90AF909F908F907F9042
:100680006F905F904F903F902F9008952F923F92E0
:100690004F925F926F927F928F929F92AF92BF9292
:1006A000CF92DF92EF92FF920F931F93CF93DF933E
:1006B000E0E4F6E08581806885830F2EF0E12F2E3F
:1006C000F7E23F2EF02D412C512C3201812C912C40
:1006D0005401C12CD12C76011BE3CFE2D2E210935E
:1006E000D42106E021E044ED51E269E6CE010E940A
:1006F0002D018F898111FDCF8B852C8590E0982F5E
:100700008827820F911DAA2797FDA095BA2F480E22
:10071000591E6A1E7B1E8D852E8590E0982F882796
:10072000820F911DAA2797FDA095BA2F880E991EBA
:10073000AA1EBB1E8F85288990E0982F8827820FDC
:10074000911DAA2797FDA095BA2FC80ED91EEA1EA3
:10075000FB1E88EC90E00197F1F7A89581E0281A3C
:10076000310809F0BCCFE0E4F6E08681806886833A
:10077000CCEBD1E2C301B20120E137E240E050E02E
:100780000E942E1DCA01B9010E94641B68837983EF
:100790008A839B83C501B40120E137E240E050E049
:1007A0000E942E1DCA01B9010E94641B6C837D83C7
:1007B0008E839F83C701B60120E137E240E050E01D
:1007C0000E942E1DCA01B9010E94641B68877987A7
:1007D0008A879B87DF91CF911F910F91FF90EF90B8
:1007E000DF90CF90BF90AF909F908F907F906F9051
:1007F0005F904F903F902F900895CF93DF93ECEB55
:10080000F1E2108211821282138214821582168202
:1008100017821086118612861386E8ECF1E21082A8
:100820001182128213821482158216821782108618
:100830001186128613860E948F020E9446034FE0A3
:1008400050E0C0E0D6E0E0E4F6E0A0E8B6E06FEF0C
:100850007FEF2D8120622D832581206425832581D2
:100860002068258315962C911597246015962C9356
:100870001597CB010197F1F7CB010197F1F7CB0168
:100880000197F1F7CB010197F1F72E8120622E83BA
:1008900026812064268326812068268316962C9143
:1008A0001697246016962C931697CB010197F1F7B3
:1008B000CB010197F1F7CB010197F1F7CB0101973C
:1008C000F1F74150510909F0C4CF84E08093D7215A
:1008D000DF91CF9108952F923F924F925F926F9246
:1008E0007F928F929F92AF92BF92CF92DF92EF92C0
:1008F000FF920F931F93CF93DF9300D000D0CDB71B
:10090000DEB783E48093D42106E021E044ED51E298
:1009100069E68FE292E20E942D01EFE2F2E287891E
:100920008111FDCF0F2EFFE2EF2EF2E2FF2EF02D10
:10093000D7011B966C911B971C968C9170E0762FBB
:100940006627680F711D882777FD8095982F0E9474
:10095000641B08EC11E2F80120813181428153814E
:100960000E94381A2B013C010F2EF0EB2F2EF1E2E2
:100970003F2EF02DD1016D937D938D939C93139712
:10098000F7016585868570E0762F6627680F711DF3
:10099000882777FD8095982F0E94641BD8011496B4
:1009A0002D913D914D915C9117970E94381A4B0102
:1009B0005C01F1016483758386839783D7011F9659
:1009C0006C911F9750968C9170E0762F6627680F78
:1009D000711D882777FD8095982F0E94641BF80170
:1009E00020853185428553850E94381A6B017C0130
:1009F000D10118966D937D938D939C931B9720E066
:100A000030E045E852E4C301B2010E94C91A2B014B
:100A10003C0108E911E2F8016083718382839383CA
:100A200020E030E045E852E4C501B4010E94C91A53
:100A30004B015C01D80114966D937D938D939C932B
:100A4000179720E030E043E852E4C701B6010E9466
:100A5000C91A69837A838B839C83F80160877187C5
:100A600082879387C0900020D0900120E0900220E0
:100A7000F09003200CE811E2A7019601C301B20136
:100A80000E94441C9B01AC01D8016D917D918D9118
:100A90009C910E94391AF801608371838283938349
:100AA000A7019601C501B4010E94441C9B01AC0141
:100AB000D80114966D917D918D919C9117970E940C
:100AC000391AF8016483758386839783A701960199
:100AD00069817A818B819C810E94441C9B01AC01BD
:100AE000D80118966D917D918D919C911B970E94D4
:100AF000391AF80160877187828793872496CDBF62
:100B0000DEBFDF91CF911F910F91FF90EF90DF90AB
:100B1000CF90BF90AF909F908F907F906F905F909D
:100B20004F903F902F9008954F925F926F927F92D7
:100B30008F929F92AF92BF92CF92DF92EF92FF92ED
:100B40000F931F93CF93DF9300D000D0CDB7DEB7C4
:100B50008BE38093D42106E021E044ED51E269E685
:100B60008FE292E20E942D01EFE2F2E28789811189
:100B7000FDCF0F2EFFE26F2EF2E27F2EF02DF3015C
:100B80006385848570E0762F6627680F711D88273E
:100B900077FD8095982F0E94641B0F2EFCEBAF2EE3
:100BA000F1E2BF2EF02DF501208131814281538188
:100BB0000E94381A6B017C0104EA11E2F80160839B
:100BC000718382839383F3016585868570E0762F38
:100BD0006627680F711D882777FD8095982F0E94E2
:100BE000641BF50124813581468157810E94381AA2
:100BF0004B015C01F8016483758386839783F3015D
:100C00006785808970E0762F6627680F711D8827B9
:100C100077FD8095982F0E94641BF801608771878B
:100C2000828793879B01AC010E94441C2B013C01ED
:100C3000A7019601C701B6010E94441C69837A830B
:100C40008B839C8329813A814B815C81C301B201F2
:100C50000E94391A0E94AB1C9B01AC01C501B40172
:100C60000E94C91A0E949D1A00E811E224E13EE2A6
:100C700045E652E40E94441CF8016083718382833C
:100C80009383A5019401C501B4010E94441C9B01FA
:100C9000AC01C301B2010E94391A0E94AB1C9B0136
:100CA000AC01C701B60190580E94C91A0E949D1A52
:100CB00024E13EE245E652E40E94441CF8016483CC
:100CC0007583868397832496CDBFDEBFDF91CF9156
:100CD0001F910F91FF90EF90DF90CF90BF90AF905A
:100CE0009F908F907F906F905F904F900895E8E174
:100CF000F2E221E9218392E8958382E381872283CE
:100D0000968382878AE583838CE3878313861086A4
:100D10001486158616861786108A089581E1E0E00C
:100D2000F0E1A8E1B2E201900D928A95E1F7E0E6E8
:100D3000F1E220E831E28CED95E0A0E0B0E08193B3
:100D40009193A193B193E217F307C9F784E794E075
:100D5000A0E0B0E080936C2190936D21A0936E2170
:100D6000B0936F2108954F925F926F927F928F920E
:100D70009F92AF92BF92CF92DF92EF92FF921F931A
:100D8000CF93DF93CDB7DEB72897CDBFDEBF80917D
:100D90005221909153212CE3289FB001299F700D7F
:100DA000112480E090E00E94621B69837A838B8328
:100DB0009C83E2E3F1E280809180A280B380448052
:100DC00055806680778024EF3DEF44EB5FE36085DC
:100DD0007185828593850E94441C6D837E838F83F9
:100DE0009887A3019201C501B4010E94381A2D8190
:100DF0003E814F8158850E94381A9B01AC01698160
:100E00007A818B819C810E94391A0E94311B99231F
:100E10008CF06B017C0161361AEE7107810591053A
:100E200064F00F2EF0E6CF2EFAEEDF2EE12CF12C3F
:100E3000F02D03C0C12CD12C7601C0924221D0925A
:100E40004321E0924421F0924521A3019201C50182
:100E5000B4010E94391A9B01AC016D817E818F81A2
:100E600098850E94391A9B01AC0169817A818B8136
:100E70009C810E94391A0E94311B99236CF0DC017D
:100E8000CB0181362AEE9207A105B10544F080E638
:100E90009AEEA0E0B0E003C080E090E0DC01809337
:100EA000462190934721A0934821B0934921A50161
:100EB0009401C301B2010E94381A2D813E814F81F5
:100EC00058850E94381A9B01AC0169817A818B8117
:100ED0009C810E94391A0E94311B99236CF0DC011D
:100EE000CB018136EAEE9E07A105B10544F080E60C
:100EF0009AEEA0E0B0E003C080E090E0DC018093D7
:100F00004A2190934B21A0934C21B0934D21C501D0
:100F1000B4019058A30192010E94381A9B01AC01C0
:100F20006D817E818F8198850E94391A9B01AC0169
:100F300069817A818B819C810E94391A0E94311BC0
:100F400099236CF0DC01CB018136FAEE9F07A105F5
:100F5000B10544F080E69AEEA0E0B0E003C080E086
:100F600090E0DC0180934E2190934F21A09350217B
:100F7000B0935121B701A6010F2EF2E44F2EF1E2FA
:100F80005F2EF02D22E531E2D201CD90DD90ED9083
:100F9000FD904C155D056E057F0510F4B701A601A7
:100FA000A217B30791F70F2EF0E6CF2EFAEEDF2E41
:100FB000E12CF12CF02D46015701841A950AA60A5E
:100FC000B70A41361AEE5107610571056CF0F2015E
:100FD00080819181A281B381880D991DAA1DBB1DBD
:100FE00080839183A283B3833201F2018081918156
:100FF000A281B3818136FAEE9F07A105B10510F0F9
:10100000D701C601F30180839183A283B383F4E007
:101010004F0E511C42165306A1F62896CDBFDEBFD7
:10102000DF91CF911F91FF90EF90DF90CF90BF9015
:10103000AF909F908F907F906F905F904F900895AA
:10104000809129228823E1F0A2E4B1E28D919C9164
:101050001197E0E0F8E080A791A714968D919C91FC
:10106000159782A793A718968D919C91199784A79D
:1010700095A71C968D919C911D9786A797A708957B
:10108000E0E0F8E010A611A612A613A614A615A675
:1010900016A617A608959FB7F89420912E22222312
:1010A000A1F122E030E0B9016F5F7F4FF901E85B09
:1010B000FD4DE081E695E695EF70E730F8F4D90153
:1010C000A85BBD4D4C91DB01A85BBD4DAC91F0E040
:1010D000EE0FFF1FEE0FFF1FE859FF4D437050E06A
:1010E00060E070E0762F652F542F44274A0F511D82
:1010F000611D711D40835183628373832E5F3F4F57
:101100002031310581F610922E229FBF78948730CE
:1011100088F4E82FF0E0EA5FFF4DE081F0E0EE0FA9
:10112000FF1FEE0FFF1FE859FF4D80819181845210
:101130009C4F08958CED95E008952F923F924F9229
:101140005F926F927F928F929F92AF92BF92CF9257
:10115000DF92EF92FF920F931F93CF93DF9300D014
:1011600000D0CDB7DEB7809167208F5F8093672076
:101170000F2EF7E28F2EF0E29F2EF02D0F2EF7E1CB
:10118000CF2EF0E2DF2EF02D0F2EF0E6EF2EF1E263
:10119000FF2EF02D0F2EF8E5AF2EF1E2BF2EF02D31
:1011A00021E02A8300E010E08370682E712C8B828E
:1011B0009C8210C00F5F1F4F8B819C8108968B8390
:1011C0009C8394E0E90EF11CEA81EF5FEA83F4E08E
:1011D000AF0EB11C0983802F0E944B08F801EE0F5F
:1011E000FF1FEE0FFF1FE60DF71DEE0FFF1FE95D5E
:1011F000FF4D80839183EB81FC812081318182814D
:101200009381820F931F24813581820F931F268142
:101210003781820F931F02969C0112F42D5F3F4F7E
:10122000C9019595879595958795F6018193919339
:101230006F01AC01662757FD6095762F4701F701D6
:101240002080318042805380F3E02F1A310841081A
:101250005108421553056405750568F49C012E5F1D
:101260003F4F1901442437FC4094542CF70120824D
:10127000318242825382F401208031804280538047
:10128000F3E02F0E311C411C511C24163506460676
:10129000570650F40297AA2797FDA095BA2FF4019C
:1012A00080839183A283B383F981F23008F041C037
:1012B000F4012081318142815381A8EEB3E00E9484
:1012C000011D6056734E86419109613FFEE77F071D
:1012D000FAEF8F07FFEF9F0774F0603121E8720784
:1012E00025E08207910564F420ED32E040E050E013
:1012F0000E942E1D09C02CE03EEF4FEF5FEF04C0AF
:1013000024EF31E040E050E0F50120833183428357
:101310005383F981F1110DC088279927DC01821BC5
:10132000930BA40BB50BF50180839183A283B38348
:1013300062C0F981F230A9F5F40120813181428146
:101340005381A8EEB3E00E94011D6056734E8641A2
:101350009109613FFEE77F07FAEF8F07FFEF9F07D5
:1013600074F0603121E8720725E08207910564F48A
:1013700020ED32E040E050E00E942E1D09C02CE03C
:101380003EEF4FEF5FEF04C024EF31E040E050E06C
:101390002093542130935521409356215093572147
:1013A0002AC08981833039F520916C2130916D21DB
:1013B00040916E2150916F21AEEDB3E00E94011D6E
:1013C00068577C418141910920ED32E040E050E0D6
:1013D0000E940C1D2A30310538F0293E93E0390770
:1013E00028F028EE33E002C02AE030E020935221BA
:1013F00030935321DFCEEA81E83008F4DBCE249627
:10140000CDBFDEBFDF91CF911F910F91FF90EF9085
:10141000DF90CF90BF90AF909F908F907F906F9014
:101420005F904F903F902F9008951F920F920FB6AC
:101430000F921124CF92DF92EF92FF920F931F939E
:101440002F933F934F935F936F937F938F939F93CC
:10145000AF93BF93EF93FF930E942202009113205A
:101460001091142020911520309116206B017C01E1
:10147000C01AD10AE20AF30AC0920F20D0921020BB
:10148000E0921120F09212206093132070931420A8
:10149000809315209093162089E8C81683E1D8061A
:1014A000E104F10440F010920E208091A009809395
:1014B000482280E00FC080910E20E82FF0E090914C
:1014C000A009E85BFD4D90838F3021F481E080938B
:1014D0002E2203C08F5F80930E20FF91EF91BF916A
:1014E000AF919F918F917F916F915F914F913F91BC
:1014F0002F911F910F91FF90EF90DF90CF900F9061
:101500000FBE0F901F90189582E080935000E0E589
:10151000F0E0818181FFFDCF88ED84BF81E0809381
:1015200040000895E0E0FAE085E08083118282E0E7
:10153000868388E893E186A397A31092E221109214
:10154000E3211092E4211092E5210895E0E0F8E013
:101550008FEF9FEE86A397A382E0808383EF818342
:10156000E2E4F1E210821182128213821482158267
:1015700016821782108611861286138614861586A7
:10158000168617860895E0E4F6E080818160808306
:101590008081826080838081846080838081886094
:1015A0008083A0E0B6E08C9180628C93808180641F
:1015B0008083808180688083E0E8F6E080818460B9
:1015C000808381E0818382E08183E0E6F6E084E04D
:1015D000828388E0818380E8818380E48283089528
:1015E000E5EDF1E28BE6808380E8818322E0AF01C4
:1015F00069E68FE292E20E947101EFE2F2E28789EE
:101600008111FDCF8FEF9FEF0197F1F7E5EDF1E24B
:101610008BE6808383E0818322E0AF0169E68FE27D
:1016200092E20E947101EFE2F2E287898111FDCF1F
:10163000E5EDF1E289E1808381E0818322E0AF0181
:1016400069E68FE292E20E947101EFE2F2E287899D
:101650008111FDCFE5EDF1E28AE1808383E08183B2
:1016600022E0AF0169E68FE292E20E947101EFE2AF
:10167000F2E287898111FDCF0895E5EDF1E28BE17A
:10168000808388E0818322E0AF0169E68FE292E205
:101690000E947101EFE2F2E287898111FDCF089586
:1016A000E5EDF1E28CE1808388E0818322E0AF0107
:1016B00069E68FE292E20E947101EFE2F2E287892D
:1016C0008111FDCF0895CF93DF93CFEFDFEFCE01F0
:1016D0000197F1F7CE010197F1F7CE010197F1F7EC
:1016E0000E94F00A0E943D0B0E94500BCE01019710
:1016F000F1F7CE010197F1F72197F1F783E080939D
:10170000D721DF91CF910895E0EBF9E0178287E6CA
:1017100086838381816383838481886184838581D7
:1017200083608583E0EAF9E080E18683178290E3B5
:10173000938384838BE0858308950E94840A0E94AA
:10174000C30AE0ECF1E087858823ECF3E0ECF1E0FC
:101750008485886084870E94A60A0E94920AEFE22C
:10176000F2E2A0EAB4E0A083B18388EF11968C93F3
:101770000190F081E02D83E2858381E084830E94E3
:10178000840BE0EAF0E082818760828378940E9493
:10179000630B0E948E060E94FD030E940E020895B4
:1017A0000F931F93CF93DF93C0E0D0E161E170E02E
:1017B000A8E1B2E280E090E0E0ECF1E005E318EDB2
:1017C0009C012F5F3F4F4D914993A9014F715527C0
:1017D000452B81F48FEF820F8083892F8F71818356
:1017E0001282028714BF81E0838787858823ECF308
:1017F00040E001C041E0C9012617370709F744233B
:1018000091F080E190E0E0ECF1E08083892F8F712E
:101810008183128285E3828788ED84BF81E083879C
:1018200087858823ECF30E948E06DF91CF911F916C
:101830000F910895CF93DF93CDB7DEB72697CDBF35
:10184000DEBF803127E2920714F08FE097E2FE01BD
:10185000319626E0DF011D922A95E9F7813FB8ED28
:101860009B0714F481EF98ED4AE0BE016F5F7F4F54
:101870000E94621D9981992389F020E0E0EBF9E054
:10188000818185FFFDCF90832F5FA1E0B0E0AC0F99
:10189000BD1FA20FB11D9C919111F2CF2696CDBF15
:1018A000DEBFDF91CF910895AF92BF92CF92DF92CA
:1018B000EF92FF920F931F93CF93DF93AFB6F894FD
:1018C000C62ED12C1C141D04B4F4B42EE82EF92E0F
:1018D00000E010E0C0EBD9E0898185FFFDCFB88240
:1018E000F701819191917F010E941A0C0F5F1F4FA8
:1018F0000C151D0589F7E0EBF9E0818185FFFDCF2F
:101900008AE08093B009AFBE7894DF91CF911F91A8
:101910000F91FF90EF90DF90CF90BF90AF90089520
:101920000F931F93CF93DF93CDB7DEB72897CDBF2B
:10193000DEBF89839A836B837C834D835E832F8391
:101940003887A80164E0CE0101960E94540C2896C5
:10195000CDBFDEBFDF91CF911F910F910895CF933F
:10196000DF93CDB7DEB72697CDBFDEBF89839A83DD
:101970006B837C834D835E83A90163E0CE01019676
:101980000E94540C2696CDBFDEBFDF91CF91089503
:10199000CF93DF9300D000D0CDB7DEB789839A8391
:1019A0006B837C8362E0CE0101960E94540C2496E6
:1019B000CDBFDEBFDF91CF9108952EE230E00E94CF
:1019C000AF0C08954CE250E00E94C80C08950F93AC
:1019D0001F930AE310E00E94900C1F910F9108954D
:1019E000BF92CF92DF92EF92FF920F931F93CF930C
:1019F000DF93CDB7DEB76497CDBFDEBFB62E8C01C7
:101A00009E012F5F3F4F79016C0138E2C30ED11C5C
:101A1000F80161917191819191918F010E94311B27
:101A2000F701619371937F010C151D0589F74BE355
:101A300050E06B2DCE0101960E94540C6496CDBFF0
:101A4000DEBFDF91CF911F910F91FF90EF90DF905C
:101A5000CF90BF900895CF93DF9300D0CDB7DEB77E
:101A60008091D8219091D92189839A834AE250E0CC
:101A700061E0CE0101960E94540C0F900F90DF910F
:101A8000CF9108951F920F920FB60F9211242F93AA
:101A90003F934F935F936F937F938F939F93AF93F6
:101AA000BF93CF93DF93EF93FF93DFB7F894E0EB0F
:101AB000F9E081818823ECF7C091B00980912D2253
:101AC000882309F4F7C080912C22811109C0C093AA
:101AD000192281E080932C228091042080932B2274
:101AE00080912C22813069F48091042090912B22E6
:101AF000981749F1C0931D2292E090932C22809375
:101B00002B2280912C22823069F4809104209091C4
:101B10002B22981749F1C093212293E090932C2215
:101B200080932B2280912C22833069F480910420B1
:101B300090912B22981749F1C0931A2294E0909328
:101B40002C2280932B2280912C22843069F4809166
:101B5000042090912B22981749F1C0931E2295E002
:101B600090932C2280932B2280912C22853069F433
:101B70008091042090912B22981749F1C093222242
:101B800096E090932C2280932B2280912C228630F9
:101B900069F48091042090912B22981749F1C09309
:101BA0001B2297E090932C2280932B2280912C2251
:101BB000873069F48091042090912B22981749F185
:101BC000C0931F2298E090932C2280932B22809127
:101BD0002C22883069F48091042090912B22981750
:101BE00049F1C093232299E090932C2280932B22D9
:101BF00080912C22893069F48091042090912B22CD
:101C0000981749F1C09320229AE090932C22809358
:101C10002B2280912C228A3069F4809104209091AB
:101C20002B22981769F1C09324229BE090932C22D9
:101C300080932B2280912C228B3069F48091042098
:101C400090912B22981791F1C093282293E19093C1
:101C50002C2280932B2280912C22833189F4809135
:101C6000042090912B22981709F12C2F30E020931B
:101C700025223093262294E190932C2280932B22CC
:101C800080912C22843191F490912B228091042018
:101C9000981761F08C2F90E0809327229093282250
:101CA00010922C2210922D220E94D00B80912D2276
:101CB0008111AAC08C2F90E0FC01E154F109E032BF
:101CC000F10508F0A1C0E454FF4F0C944D1D81E0D4
:101CD0008093052099C01092052010922A2294C06A
:101CE0001092052081E080932A228EC01092052058
:101CF00082E080932A2288C083E08093052084C0FC
:101D000082E08093052080C0E8E1F2E2418550E066
:101D1000658170E0818121E630E090E00E94AF0CA7
:101D20008AE02FEF3FEFF9013197F1F78150D9F7B2
:101D30008AE08093D721E8E1F2E2428550E06681B3
:101D400070E0828122E630E090E00E94AF0C8AE0F1
:101D50002FEF3FEFF9013197F1F78150D9F78AE082
:101D60008093D721E8E1F2E2438550E0678170E09B
:101D7000838123E630E090E00E94AF0C8AE02FEFF1
:101D80003FEFF9013197F1F78150D9F78AE080935D
:101D9000D721E8E1F2E2408950E0648570E0808577
:101DA00024E630E090E00E94AF0C8AE02FEF3FEF96
:101DB000F9013197F1F78150D9F78AE08093D72163
:101DC000E8E1F2E26785708947E650E0858596850F
:101DD0000E94C80C8AE02FEF3FEFF9013197F1F72D
:101DE0008150D9F78AE08093D7210EC0FFCF81E0E0
:101DF00080932D2209C010922D2206C081E080938D
:101E0000292202C010922922809104208F5F8093A2
:101E10000420DFBF7894FF91EF91DF91CF91BF91C4
:101E2000AF919F918F917F916F915F914F913F9172
:101E30002F910F900FBE0F901F9018952F923F92E9
:101E40004F925F926F927F928F929F92AF92BF92CA
:101E5000CF92DF92EF92FF920F931F93CF93DF9376
:101E6000C0EFD1E24C805D806E807F80809000204A
:101E700090900120A0900220B090032008E911E288
:101E8000F8012081318142815381C501B4010E9452
:101E9000441C288139814A815B810E94391A2EEACB
:101EA00038ED4FE75FE30E94441C6B017C010F2E6D
:101EB000F0E82F2EF1E23F2EF02D20E038E44DE146
:101EC0005AE3F10160817181828193810E94441CF7
:101ED0009B01AC01C701B6010E94391A6B017C015C
:101EE000E6ECF0E26083718382839383F8012481BE
:101EF000358146815781C501B4010E94441C9B0174
:101F0000AC01C301B2010E94391A2EEA38ED4FE745
:101F10005FE30E94441C4B015C0120E038E44DE18A
:101F20005AE3F10164817581868197810E94441C86
:101F30009B01AC01C501B4010E94391A6093CA200B
:101F40007093CB208093CC209093CD20C882D982EF
:101F5000EA82FB826C837D838E839F83DF91CF91A6
:101F60001F910F91FF90EF90DF90CF90BF90AF90B7
:101F70009F908F907F906F905F904F903F902F90A9
:101F800008952F923F924F925F926F927F928F921D
:101F90009F92AF92BF92CF92DF92EF92FF920F93F8
:101FA0001F93CF93DF93CDB7DEB76097CDBFDEBF72
:101FB0008091F8219091F921A091FA21B091FB2113
:101FC00089879A87AB87BC878091FC219091FD21FE
:101FD000A091FE21B091FF218D879E87AF87B88B9E
:101FE0000F2EF0E8AF2EF1E2BF2EF02D29853A85B5
:101FF0004B855C85D5016D917D918D919C910E9461
:10200000381A6B017C012DEC3CEC4CEC5DE30E943A
:10201000441C2DEC3CEC4CEC5DE30E94441C2B0179
:102020003C010AEB10E2F8016083718382839383A1
:102030002D853E854F855889D50114966D917D91EA
:102040008D919C9117970E94381A6D837E838F83A0
:1020500098872DEC3CEC4CEC5DE30E94441C2DEC8D
:102060003CEC4CEC5DE30E94441C4B015C010F2EE8
:10207000FEEA2F2EF0E23F2EF02DF10160837183F6
:10208000828393838091002090910120A09102206F
:10209000B091032089839A83AB83BC839C01AD01FB
:1020A000C301B2010E94441CD80118962D913D91A4
:1020B0004D915C911B970E94391A2B013C01F8014C
:1020C000608771878287938729813A814B815C8100
:1020D000C501B4010E94441CD10118962D913D9177
:1020E0004D915C911B970E94391A4B015C01F101E3
:1020F0006087718782879387A7019601C701B60120
:102100000E94391A2DEC3CEC4CEC5DE30E94441C1F
:102110009B01AC01C301B2010E94391A0F2EF8E9EC
:102120006F2EF1E27F2EF02DD3012D913D914D9137
:102130005C910E94391A6B017C01F80164837583FC
:10214000868397832D813E814F815885CA01B901CD
:102150000E94391A2DEC3CEC4CEC5DE30E94441CCF
:102160009B01AC01C501B4010E94391AD301149638
:102170002D913D914D915C9117970E94391A4B0119
:102180005C01F1016483758386839783A7019601BF
:1021900069817A818B819C810E94441C9B01AC01E6
:1021A00069857A858B859C850E94391A6B017C0133
:1021B00006EC10E2D8016D937D938D939C93139759
:1021C000A501940169817A818B819C810E94441CC4
:1021D0009B01AC016D857E858F8598890E94391A97
:1021E000F8016483758386839783C092F821D09227
:1021F000F921E092FA21F092FB216093FC21709387
:10220000FD218093FE219093FF216096CDBFDEBF1C
:10221000DF91CF911F910F91FF90EF90DF90CF90C2
:10222000BF90AF909F908F907F906F905F904F90F6
:102230003F902F9008952F923F924F925F926F920E
:102240007F928F929F92AF92BF92CF92DF92EF9246
:10225000FF920F931F93CF93DF93CDB7DEB7AC9769
:10226000CDBFDEBF8091042290910522A09106226D
:10227000B091072289A79AA7ABA7BCA7A6EAB0E2AC
:10228000CD90DD90ED90FC9040900020509001208A
:102290006090022070900320A7019601E8E9F1E226
:1022A00060817181828193810E94381AA301920119
:1022B0000E94441C20910022309101224091022270
:1022C000509103220E94391A6D8B7E8B8F8B988FD1
:1022D000D301C201B0588D839E83AF83B887AEE827
:1022E000B0E28D909D90AD90BC90A6E9B0E28D914A
:1022F0009D910D90BC91A02D89839A83AB83BC8363
:102300002FE632E143E85AE3C301B2010E94441CC4
:10231000698F7A8F8B8F9C8F0EE910E229813A8129
:102320004B815C81C501B4010E94391A9B01AC014B
:102330006D817E818F8198850E94441C298D3A8D04
:102340004B8D5C8D0E94391AF801208131814281C8
:1023500053810E94391A69877A878B879C870F2E51
:10236000F6E82F2EF0E23F2EF02DD1018D919D91B8
:102370000D90BC91A02D898B9A8BAB8BBC8B9C0153
:10238000AD016D817E818F8198850E94441C6D878F
:102390007E878F87988B9B01AC0169817A818B81C5
:1023A0009C810E94391A6D8F7E8F8F8F98A32D8507
:1023B0003E854F855889C501B4010E94391A6D8741
:1023C0007E878F87988B26EA3BE944E45BE3C30171
:1023D000B2010E94441C69A37AA38BA39CA32D89FC
:1023E0003E894F89588DE0E8F1E2608171818281F8
:1023F00093810E94381A6DA37EA38FA398A72AE920
:1024000039E949E95EE369857A858B859C850E9477
:10241000391A69837A838B839C839B01AC0169851C
:102420007A858B859C850E94C91A4B015C012981A4
:102430003A814B815C816D857E858F8598890E946C
:10244000C91A69837A838B839C832DA13EA14FA1F6
:1024500058A5C501B4010E94441C9B01AC016D89C3
:102460007E898F89988D0E94391A6D8B7E8B8F8B18
:10247000988FA6ECB0E26D937D938D939C93139708
:102480002DA13EA14FA158A569817A818B819C81A4
:102490000E94441C9B01AC01C701B6010E94391A7D
:1024A000E6EAF0E26083718382839383A50194015D
:1024B00069857A858B859C850E94441C9B01AC01B3
:1024C00069857A858B859C850E94381A6B017C0111
:1024D000D8016D937D938D939C931397A5019401DF
:1024E0006D8D7E8D8F8D98A10E94441C9B01AC0147
:1024F0006D8D7E8D8F8D98A10E94381A4B015C01E5
:10250000E6E9F0E26083718382839383A7019601F9
:1025100069817A818B819C810E94441C9B01AC0162
:102520006D857E858F8598890E94381AAEE8B0E265
:102530006D937D938D939C93139729A13AA14BA101
:102540005CA169897A898B899C890E94391A6B01FF
:102550007C01A501940169817A818B819C810E9413
:10256000441C9B01AC01C701B6010E94381AF1015D
:102570006083718382839383C090AA20D090AB2024
:10258000E090AC20F090AD20A701960160919C21D5
:1025900070919D2180919E2190919F210E94381AD7
:1025A0009B01AC01C301B2010E94441C9B01AC0120
:1025B00069A57AA58BA59CA50E94391A698B7A8B8F
:1025C0008B8B9C8B8090922090909320A090942055
:1025D000B090952040909A2050909B2060909C2035
:1025E00070909D20A3019201C501B4010E94391A87
:1025F0009B01AC016D817E818F8198850E94441C76
:102600009B01AC01698D7A8D8B8D9C8D0E94391A4E
:10261000D80114962D913D914D915C9117970E9490
:10262000391A69877A878B879C87D10114968D9197
:102630009D910D90BC91A02D89839A83AB83BC831F
:102640009C01AD016D817E818F8198850E94441C23
:102650006D837E838F8398879B01AC01C301B20198
:102660000E94391A698F7A8F8B8F9C8F2D813E81C2
:102670004F815885C501B4010E94391A6D877E8744
:102680008F87988B29893A894B895C89609184214D
:102690007091852180918621909187210E94381A1E
:1026A0006D8F7E8F8F8F98A32AE939E949E95EE320
:1026B00069857A858B859C850E94391A4B015C015E
:1026C0009B01AC0169857A858B859C850E94C91A1E
:1026D0002B013C01A50194016D857E858F8598892C
:1026E0000E94C91A6D837E838F8398872D8D3E8DBE
:1026F0004F8D58A1C301B2010E94441C9B01AC0143
:1027000069897A898B899C890E94391A4B015C01FD
:102710006093CA207093CB208093CC209093CD20DF
:102720002D8D3E8D4F8D58A16D817E818F81988535
:102730000E94441C9B01AC01C701B6010E94391ADA
:102740006093AA207093AB208093AC209093AD202F
:10275000A301920169857A858B859C850E94441C22
:102760009B01AC0169857A858B859C850E94381A0E
:102770006B017C01F8016483758386839783A301D1
:102780009201698D7A8D8B8D9C8D0E94441C9B01DA
:10279000AC01698D7A8D8B8D9C8D0E94381A2B012E
:1027A0003C0160939A2070939B2080939C2090938F
:1027B0009D20A70196016D817E818F8198850E9461
:1027C000441C9B01AC016D857E858F8598890E9494
:1027D000381A609392207093932080939420909362
:1027E000952029813A814B815C8169A17AA18BA1D5
:1027F0009CA10E94391A6B017C01A30192016D8199
:102800007E818F8198850E94441C9B01AC01C70189
:10281000B6010E94381AD10114966D937D938D9361
:102820009C9317978D899E89AF89B88D80930022DC
:1028300090930122A0930222B0930322809204225B
:1028400090920522A0920622B0920722AC96CDBFAC
:10285000DEBFDF91CF911F910F91FF90EF90DF903E
:10286000CF90BF90AF909F908F907F906F905F9030
:102870004F903F902F9008952F923F924F925F92EA
:102880006F927F928F929F92AF92BF92CF92DF9280
:10289000EF92FF920F931F93CF93DF93CDB7DEB7E5
:1028A0006C97CDBFDEBFE2E2F1E2A2E1B1E24D9171
:1028B0005D916D917C911397408351836283738303
:1028C00014964D915D916D917C911797448355833A
:1028D0006683778318968D919D910D90BC91A02D64
:1028E00080879187A287B3878091002090910120F3
:1028F000A0910220B09103208F8B988FA98FBA8F5F
:102900000F2EF8E5CF2EF1E2DF2EF02DA6ECB0E28F
:10291000A983BA83E5E2F2E2ED83FE8382E191E2EC
:1029200089879A87A9E1B2E2AD87BE87E2E0F1E24A
:10293000E98BFA8B0F2EF2ED6F2EF0E27F2EF02D49
:102940008DE192E28B8B9C8B0F2EF2EEEF2EF0E25C
:10295000FF2EF02D0F2EF8E98F2EF1E29F2EF02D95
:10296000A1E2B2E2AD8BBE8B0F2EF2EF2F2EF0E282
:102970003F2EF02D02E010E056016B8E7C8E670139
:10298000F50161917191819191915F01A981BA8164
:102990004D905D906D907D90A983BA83ED81FE810D
:1029A000E190F190ED83FE830E94641B20E030E013
:1029B00040E251E40E94C91AA30192010E94381A10
:1029C0002B013C01B701882777FD8095982F0E9445
:1029D000641B9B01AC01C301B2010E94391A2B0197
:1029E0003C01A985BA856D937D938D939D93A987AD
:1029F000BA87ED85FE856191ED87FE8770E080E006
:102A000090E00E94641B9B01AC01C301B2010E94D3
:102A1000441CA989BA896D937D938D939D93A98B4D
:102A2000BA8BEB8CFC8C2F89388D498D5A8DC30164
:102A3000B2010E94441CF7012081318142815381FF
:102A40000E94391A2B013C0120E030E048E452ECAE
:102A50000E94C51A88235CF020E030E048E452E48C
:102A6000C301B2010E94391C181654F011C00F2E78
:102A7000412C512CF8E46F2EF2EC7F2EF02D08C083
:102A80000F2E412C512CF8E46F2EF2E47F2EF02D06
:102A9000D7014D925D926D927C921397EB89FC89E0
:102AA0006191EB8BFC8B70E080E090E00E94641BF6
:102AB0009B01AC01C301B2010E94441CD6016D937D
:102AC0007D938D939D936D01F401419051906190A0
:102AD00071904F01AD89BE896D91AD8BBE8B70E059
:102AE00080E090E00E94641B9B01AC01C301B20135
:102AF0000E94441CF10161937193819391931F0192
:102B0000015011098B8D9C8D04968B8F9C8F011524
:102B1000110509F035CFC090A021D090A121E090FF
:102B2000A221F090A32160915421709155218091B0
:102B30005621909157210E94641BA70196010E9483
:102B4000381A4B015C0160931A2170931B2180930A
:102B50001C2190931D2160911B2270E080E090E089
:102B60000E94641B9B01AC01C501B4010E94441C7E
:102B70002B013C0160930A2170930B2180930C215F
:102B800090930D212091002030910120409102204E
:102B900050910320C501B4010E94441C2091DA2009
:102BA0003091DB204091DC205091DD200E94391AC9
:102BB0004B015C0120E030E048EC52EC0E94C51A69
:102BC00088235CF020E030E048EC52E4C501B40119
:102BD0000E94391C181654F011C00F2E812C912C14
:102BE000F8ECAF2EF2ECBF2EF02D08C00F2E812C8A
:102BF000912CF8ECAF2EF2E4BF2EF02D8092DA206B
:102C00009092DB20A092DC20B092DD2008E112E25D
:102C1000D80117966C9170E080E090E00E94641BF0
:102C20009B01AC01C501B4010E94441C4B015C0135
:102C30000F2EF2EE2F2EF0E23F2EF02DF1016087E5
:102C4000718782879387D8011B966C9170E080E032
:102C500090E00E94641B9B01AC01C701B6010E9479
:102C6000441C6D877E878F87988B6093FA207093C2
:102C7000FB208093FC209093FD20A2E0B1E28D9197
:102C80009D910D90BC91A02D89839A83AB83BC83C9
:102C9000A2EFB0E28D919D910D90BC91A02D8D83FE
:102CA0009E83AF83B887D1018D919D910D90BC918A
:102CB000A02D89879A87AB87BC872D813E814F8164
:102CC000588569817A818B819C810E94381A298577
:102CD0003A854B855C850E94391A6B017C0102E3C1
:102CE00011E2F80160837183828393832091F6203F
:102CF0003091F7204091F8205091F9206091062101
:102D00007091072180910821909109210E94381A21
:102D1000D10114962D913D914D915C9117970E9490
:102D2000391AF80164837583868397832D853E85E0
:102D30004F855889C301B2010E94381A9B01AC012A
:102D4000C501B4010E94391AD80118966D937D937C
:102D50008D939C931B9700EF11E220E030E048EC4C
:102D600052E4C701B6010E94C91AF801608F718F41
:102D7000828F938F20E030E048EC52E469817A81C1
:102D80008B819C810E94C91AD8015C966D937D93BA
:102D90008D939C935F9720E030E048EC52E46D8186
:102DA0007E818F8198850E94C91AF80160A371A362
:102DB00082A393A320E030E048EC52E469857A8551
:102DC0008B859C850E94C91AD80194966D937D933A
:102DD0008D939C9397976C96CDBFDEBFDF91CF917B
:102DE0001F910F91FF90EF90DF90CF90BF90AF9029
:102DF0009F908F907F906F905F904F903F902F901B
:102E00000895009709F041C0809184209091852019
:102E1000843F21E0920721F08C3B22E0920791F45D
:102E2000E0E0F6E0258120622583E0E4F6E02581FC
:102E300020642583258120682583E0E8F6E025814C
:102E400024602583883522E0920721F0843823E02E
:102E5000920791F4E0E0F6E0268120622683E0E428
:102E6000F6E0268120642683268120682683E0E818
:102E7000F6E0268124602683893E934008F44BC007
:102E8000109284201092852046C0019709F043C01B
:102E900080918420909185208D37910559F4E0E050
:102EA000F6E0268120622683E0E4F6E025812064B6
:102EB00025831BC08A3F910549F4E0E4F6E02681B2
:102EC000206426832581206825831EC0873721E062
:102ED000920759F4E0E4F6E0868180688683E0E8B2
:102EE000F6E085818460858316C0843F21E09207E7
:102EF00059F4E0E8F6E0868184608683E0E0F6E05D
:102F000085818062858307C0853F914020F01092C3
:102F100084201092852080918420909185200196B4
:102F200080938420909385200895809152219091E0
:102F30005321883C910528F481E090E00E9401171C
:102F4000089580E090E00E9401170895CF93DF93E9
:102F5000CDB7DEB72897CDBFDEBF0E949D0BC12C39
:102F6000D12C7601412C512C32010F2E212CF6E070
:102F70003F2EF02D0E9422024B015C016093DE2166
:102F80007093DF218093E0219093E121EAEDF1E25B
:102F9000808191818401081B190B0093D821109323
:102FA000D9218092DA219092DB21A092DC21B0928B
:102FB000DD214091E8215091E9216091EA21709151
:102FC000EB21CB01BA01600F711F811D911D609330
:102FD000E8217093E9218093EA219093EB212091DD
:102FE000E6213091E7212F5F3F4F2093E621309378
:102FF000E72125363105D4F024E630E040E050E00A
:103000000E940C1D2093EC213093ED214093EE2182
:103010005093EF211092E6211092E7211092E821BF
:103020001092E9211092EA211092EB21B80180E080
:1030300090E00E94621B20E034E244E759E40E94E1
:10304000C91A60930020709301208093022090930E
:1030500003200E946B040E9494050E941E0F0E9490
:10306000C10F0E941B110E943C14C814D904EA0429
:10307000FB0408F0D9C080E18093A40975016401C4
:10308000F0E2CF0EFEE4DF1EE11CF11C0E949D0861
:103090008091522190915321449708F0C5C0E8E5F2
:1030A000F1E280819181A281B3818E33FEEF9F078F
:1030B000FFEFAF07BF07BCF540915C2150915D2148
:1030C00060915E2170915F214E335E4F6F4F7F4F55
:1030D0000CF0AAC040915421509155216091562185
:1030E000709157214E335E4F6F4F7F4F0CF0B9C137
:1030F000E0E0F6E0858180628583E0E4F6E08581AA
:1031000080648583858180688583E0E8F6E0858139
:103110008460858388E02FEF3FEFF9013197F1F765
:103120008150D9F7FFCF833C9140A105B1050CF444
:103130007BC080915C2190915D21A0915E21B09136
:103140005F218E339E4FAF4FBF4F0CF06DC080910B
:10315000542190915521A0915621B09157218E3341
:103160009E4FAF4FBF4F0CF05FC080912922882344
:1031700009F473C1E0E0F8E010A611A612A613A6A8
:1031800014A615A616A617A6109229222FE030E045
:10319000F1018581806285838091450680648093FA
:1031A0004506809145068068809345068091850696
:1031B0008460809385068FEF9FEF0197F1F78FEF83
:1031C0009FEF0197F1F78FEF9FEF0197F1F78FEFE7
:1031D0009FEF0197F1F78681806286838091460692
:1031E00080648093460680914606806880934606F8
:1031F000809186068460809386068FEF9FEF01970B
:10320000F1F78FEF9FEF0197F1F78FEF9FEF0197A6
:10321000F1F78FEF9FEF0197F1F72150310909F096
:10322000B7CF84E08093D721481459046A047B0403
:1032300008F00BC124013501F0E24F0EFEE45F1EE1
:10324000611C711C80910520813049F008F46EC02A
:10325000823009F4F8C0833009F4EDC0F6C006EC02
:1032600010E220E030E040E251E4F8016481758131
:10327000868197810E94441C0E94311B4B015C0196
:1032800020E030E040E251E4F80160817181828108
:1032900093810E94441C0E94311BDC01CB01B401CC
:1032A0000E94E20C02E411E2F801648575858685CE
:1032B000978528EE33E040E050E00E940C1D490164
:1032C0005A01F801608571858285938528EE33E087
:1032D00040E050E00E940C1D29833A834B835C83BD
:1032E000F801648175818681978128EE33E040E0A2
:1032F00050E00E940C1D2D833E834F835887F801B8
:10330000608171818281938128EE33E040E050E05A
:103310000E940C1DDA01C901940149815A816D8115
:103320007E810E94E70C0E942B0D8FC000912A2203
:1033300010E0000F111F000F111FF801EE50FF4D9C
:1033400020E030E048EC52E4608171818281938119
:103350000E94C91A0E94311B69837A838B839C83E4
:10336000F801EE51FF4D20E030E048EC52E460817E
:103370007181828193810E94C91A0E94311B4B0185
:103380005C01F801EE5FFE4D20E030E048EC52E4D5
:1033900060817181828193810E94C91A0E94311BD0
:1033A000DC01CB0149815A81B4010E94DD0C02E4A9
:1033B00011E2F801648575858685978528EE33E0EE
:1033C00040E050E00E940C1D49015A01F80160855F
:1033D00071858285938528EE33E040E050E00E94BD
:1033E0000C1D29833A834B835C83F80164817581CA
:1033F0008681978128EE33E040E050E00E940C1D6A
:103400002D833E834F835887F801608171818281CB
:10341000938128EE33E040E050E00E940C1DDA0179
:10342000C901940149815A816D817E810E94E70C16
:103430000E942B0D0AC06AE080EF91E20E94F00C1E
:103440000E942B0D02C00E942B0D0E9495170E9416
:10345000B3060E942008A8958DCD81E08093292293
:1034600095CE833C9140A105B1050CF070CEDCCE29
:103470005058BB27AA270ED0C2C1B3D130F0B8D163
:1034800020F031F49F3F11F41EF483C10EF4E09557
:10349000E7FB79C1E92FC4D180F3BA17620773073C
:1034A0008407950718F071F49EF5DCC10EF4E095E1
:1034B0000B2EBA2FA02D0B01B90190010C01CA01EE
:1034C000A0011124FF27591B99F0593F50F4503E99
:1034D00068F11A16F040A22F232F342F4427585F8B
:1034E000F3CF469537952795A795F0405395C9F7A3
:1034F0007EF41F16BA0B620B730B840BBAF091505B
:10350000A1F0FF0FBB1F661F771F881FC2F70EC0F9
:10351000BA0F621F731F841F48F4879577956795CC
:10352000B795F7959E3F08F0B3CF9395880F08F0B5
:103530009927EE0F979587950895DF93DD27B92F8B
:10354000BF7740E85FE31616170648075B0710F4DD
:10355000D92F93D19F938F937F936F933AD2E8EBB8
:10356000F1E01AD14CD12F913F914F915F9198D1B9
:10357000DD2349F09058A2EA2AED3FE049EC5FE3F1
:10358000D0785D2787DFDF913AC1D9D008F481E098
:1035900008950CD034C12CD140F023D130F021F467
:1035A0005F3F19F0F0C051115EC1F3C039D198F3FB
:1035B0009923C9F35523B1F3951B550BBB27AA27B4
:1035C00062177307840738F09F5F5F4F220F331F26
:1035D000441FAA1FA9F333D00E2E3AF0E0E830D0F2
:1035E00091505040E695001CCAF729D0FE2F27D0F5
:1035F000660F771F881FBB1F261737074807AB07C3
:10360000B0E809F0BB0B802DBF01FF2793585F4F37
:103610002AF09E3F510568F0B6C025C15F3FECF32C
:10362000983EDCF3869577956795B795F7959F5FFC
:10363000C9F7880F911D9695879597F90895E1E050
:10364000660F771F881FBB1F621773078407BA07AF
:1036500020F0621B730B840BBA0BEE1F88F7E0950A
:10366000089504D06894B111FEC00895E1D088F0A7
:103670009F5790F0B92F9927B751A0F0D1F0660F5E
:10368000771F881F991F1AF0BA95C9F712C0B13079
:1036900081F0E8D0B1E00895E5C0672F782F882742
:1036A000B85F39F0B93FCCF3869577956795B395B8
:1036B000D9F73EF490958095709561957F4F8F4F27
:1036C0009F4F0895E89409C097FB3EF4909580952C
:1036D000709561957F4F8F4F9F4F9923A9F0F92FD8
:1036E00096E9BB279395F695879577956795B79556
:1036F000F111F8CFFAF4BB0F11F460FF1BC06F5F3C
:103700007F4F8F4F9F4F16C0882311F096E911C04D
:10371000772321F09EE8872F762F05C0662371F06E
:1037200096E8862F70E060E02AF09A95660F771F82
:10373000881FDAF7880F9695879597F90895990F5E
:103740000008550FAA0BE0E8FEEF16161706E8076B
:10375000F907C0F012161306E407F50798F0621B8C
:10376000730B840B950B39F40A2661F0232B242B61
:10377000252B21F408950A2609F4A140A6958FEF80
:10378000811D811D089597F99F6780E870E060E0D2
:1037900008959FEF80EC0895DF93CF931F930F93CD
:1037A000FF92EF92DF927B018C01689405C0DA2EC4
:1037B000EF0176D0FE01E894A591259135914591D0
:1037C0005591AEF3EF0166DEFE019701A801DA9490
:1037D00079F7DF90EF90FF900F911F91CF91DF91DC
:1037E000089500240A941616170618060906089567
:1037F00000240A9412161306140605060895092ECD
:103800000394000C11F4882352F0BB0F40F4BF2B3B
:1038100011F460FF04C06F5F7F4F8F4F9F4F08957B
:1038200057FD9058440F551F59F05F3F71F0479571
:10383000880F97FB991F61F09F3F79F08795089556
:10384000121613061406551FF2CF4695F1DF08C075
:10385000161617061806991FF1CF86957105610592
:1038600008940895E894BB2766277727CB0197F93A
:10387000089565DF08F48FEF08959B01AC0160E0C7
:1038800070E080E89FE385CE0BD0B9CFAADF28F0A7
:10389000AFDF18F0952309F076CF7BCF1124E3CF6B
:1038A000BFDFA0F3959FD1F3950F50E0551F629FA6
:1038B000F001729FBB27F00DB11D639FAA27F00D89
:1038C000B11DAA1F649F6627B00DA11D661F829FB0
:1038D0002227B00DA11D621F739FB00DA11D621F95
:1038E000839FA00D611D221F749F3327A00D611DB2
:1038F000231F849F600D211D822F762F6A2F112494
:103900009F5750408AF0E1F088234AF0EE0FFF1FE6
:10391000BB1F661F771F881F91505040A9F79E3F1D
:10392000510570F030CF9FCF5F3FECF3983EDCF352
:10393000869577956795B795F795E7959F5FC1F75A
:10394000FE2B880F911D9695879597F9089511F490
:103950000EF41FCF41C06CDFD0F39923D9F3CEF31F
:103960009F57550B87FF46D00024A0E640EA900100
:1039700080585695979528F4805C660F771F881FAE
:1039800020F026173707480730F4621B730B840BAF
:10399000202931294A2BA6951794079420253125F3
:1039A0004A2758F7660F771F881F20F0261737071A
:1039B000480730F4620B730B840B200D311D411D41
:1039C000A09581F7B901842F9158880F9695879516
:1039D00008959B01AC0158CF9F3F31F0915020F4E6
:1039E000879577956795B795880F911D96958795DB
:1039F00097F9089591505040660F771F881FD2F7AE
:103A000008950E94531DA59F900DB49F900DA49FF3
:103A1000800D911D11240895A1E21A2EAA1BBB1B33
:103A2000FD010DC0AA1FBB1FEE1FFF1FA217B3078A
:103A3000E407F50720F0A21BB30BE40BF50B661FA0
:103A4000771F881F991F1A9469F760957095809564
:103A500090959B01AC01BD01CF010895052E97FB08
:103A60001EF400940E94451D57FD07D00E940C1DB6
:103A700007FC03D04EF40C94451D509540953095AD
:103A800021953F4F4F4F5F4F0895909580957095CA
:103A900061957F4F8F4F9F4F0895EE0FFF1F059049
:103AA000F491E02D0994A29FB001B39FC001A39FA0
:103AB000700D811D1124911DB29F700D811D112467
:103AC000911D0895BB274A3031F4992322F4BDE2B9
:103AD000909581959F4F0C946E1DBB27FB01552738
:103AE000AA27880F991FAA1FA41710F0A41B83955B
:103AF0005051B9F7A05DAA3308F0A95DA1930097D2
:103B000079F7B111B1931192CB010C94871DDC01AF
:103B1000FC01672F71917723E1F7329704C07C9104
:103B20006D9370836291AE17BF07C8F30895F89440
:023B3000FFCFC5
:0E3B32000AD7A33A01020102030004050600AF
:00000001FF
